:100000000C9469050C9486050C9486050C949F2B22
:100010000C9486050C9486050C9486050C94860534
:100020000C9486050C9486050C94DF280C94B72953
:100030000C94A7120C9486050C9486050C948605E6
:100040000C9486050C9486050C9486050C94860504
:100050000C9486050C94BB280C9486050C9486059C
:100060000C9486050C9486050C9486050C948605E4
:100070000C9486050C9486050C9486050C948605D4
:100080000C9486050C9486050C9486050C948605C4
:100090000C9486050C9486050C9486050C948605B4
:1000A0000C9486050C9486050C9486052606BFFFE5
:1000B000FFFF000000001E0680FF80260680FF80F4
:1000C000FF000000001E067B5A7026067B5A70FF58
:1000D0000000000000AF00AE07087F0807003E5B8D
:1000E0004F5B3E003E6B4F6B3E001C3E7C3E1C0057
:1000F000183C7E3C18001C577D571C001C5E7F5E20
:100100001C0000183C180000FFE7C3E7FF000018C0
:1001100024180000FFE7DBE7FF0030483A060E0036
:10012000262979292600407F05050700407F0525FF
:100130003F005A3CE73C5A007F3E1C1C0800081C4C
:100140001C3E7F0014227F2214005F5F005F5F006F
:1001500006097F017F00006689956A006060606023
:10016000600094A2FFA2940008047E0408001020FE
:100170007E20100008082A1C0800081C2A08080015
:100180001E10101010000C1E0C1E0C0030383E38D3
:100190003000060E3E0E06000000000000000000C9
:1001A0005F000000000700070000147F147F1400A8
:1001B000242A7F2A1200231308646200364956203D
:1001C0005000000807030000001C2241000000410D
:1001D000221C00002A1C7F1C2A0008083E08080078
:1001E0000080703000000808080808000000606007
:1001F00000002010080402003E5149453E00004224
:100200007F4000007249494946002141494D330071
:100210001814127F10002745454539003C4A4949CA
:100220003100412111090700364949493600464944
:1002300049291E00000014000000004034000000A6
:100240000008142241001414141414000041221454
:1002500008000201590906003E415D594E007C121A
:1002600011127C007F49494936003E41414122003C
:100270007F4141413E007F49494941007F090909C9
:1002800001003E41415173007F0808087F00004192
:100290007F4100002040413F01007F0814224100BF
:1002A0007F40404040007F021C027F007F04081016
:1002B0007F003E4141413E007F09090906003E4161
:1002C00051215E007F09192946002649494932001B
:1002D00003017F0103003F4040403F001F204020BA
:1002E0001F003F4038403F006314081463000304BC
:1002F000780403006159494D4300007F41414100AA
:10030000020408102000004141417F000402010264
:100310000400404040404000000307080000205413
:10032000547840007F28444438003844444428002E
:10033000384444287F0038545454180000087E097B
:10034000020018A4A49C78007F08040478000044EC
:100350007D4000002040403D00007F102844000008
:1003600000417F4000007C04780478007C0804048D
:100370007800384444443800FC1824241800182419
:100380002418FC007C080404080048545454240039
:1003900004043F4424003C4040207C001C204020BA
:1003A0001C003C4030403C004428102844004C9045
:1003B00090907C004464544C440000083641000096
:1003C000000077000000004136080000020102042E
:1003D00002003C2623263C000000000000004040B4
:1003E00040F0F8F8FF38FFF8F83FF8F8FF38FFF86A
:1003F000F8F040404000000000000080C0C0C08015
:100400000000C0C08000000080C0C000C0C000006C
:1004100080C0C00000000000C0C0C0C0C000C0C09C
:1004200000000000000000000000000000000000CC
:1004300000000000000000000000000000000000BC
:1004400000000000000000000000000000000000AC
:1004500000000000000000C0F0F8FC3E1E06010095
:1004600000007F4141417F007F4141417F0000808A
:10047000C0E07E5B4F5BFEC00000C000DCD7DEDE6C
:10048000DED7DC00C000000000000000000000001B
:1004900000000000000000000000000000004949CA
:1004A00049FFFFFFFFE0DFBFBF00BFBFDFE0FFFF8F
:1004B000FFFF49494900000000001F3F6060E0BFA6
:1004C0001F007F7F071E381E077F7F007F7F0E1F64
:1004D0003B716000000000007F7F0C0C0C007E7EF2
:1004E000007F7E0303007F7E03037E7E03037F7E07
:1004F000000F3E703C063C703E0F00327B49493F86
:100500007E007F7E0303001E3F69696F26000000A6
:1005100000000000000000030F1F3F3C78706000E7
:1005200000007F4141417F007F4141417F00307B9E
:100530007F7830202030787F3B0003000F7F0F0F43
:100540000F7F0F000300000000000000000000000B
:100550000000000000000000000000000000010199
:1005600001070F0F7F0F7F0F0F7E0F0F7F0F7F0F82
:100570000F07010101000000000000000000000161
:10058000010000000000000000000000000000006A
:10059000000000000000000000000000000000005B
:1005A000000000000000000000000000000000004B
:1005B000000000000000000000000000000000003B
:1005C000000000000000000000000000000000002B
:1005D000000000000000000000000000000000001B
:1005E000000000000000000000000000000000000B
:1005F00000000000000000000000000000000000FB
:1006000000000000000000000000000000000000EA
:10061000000000000000000005010902A1018502A0
:100620000901A100050919012908150025019508EE
:10063000750181020501093009311581257F950277
:100640007508810609381581257F95017508810691
:10065000050C0A38021581257F950175088106C0B1
:10066000C005010980A101850319012AB700150100
:1006700026B700950175108100C0050C0901A10184
:10068000850419012AA002150126A0029501751002
:100690008100C005010906A101050719E029E71538
:1006A00000250195087501810295017508810105F4
:1006B00007190029FF150026FF009506750881001F
:1006C0000508190129059505750191029501750324
:1006D0009101C009023B00020100A0FA09040000D8
:1006E0000103010100092111010001224000070559
:1006F0008103080001090401000103000000092131
:1007000011010001227B0007058203200001120174
:1007100000020000000832FC870201000102000113
:100720000C0353006F0066006C00650000001A03A4
:100730004A006F00730065006600410064006100BC
:100740006D00630069006B000000040309048081F0
:1007500082838485868788898A8B8C8D8E8F909101
:10076000929394A0A1A2A3A4A5A6A7A8A9AAABAC62
:10077000ADAEAFB0B1B2B3B4C0C1C2C3C4C5C6C7D9
:10078000C8C9CACBCCCDCECFD0D1D2D3D400556E30
:100790006465660030303031003030303200426104
:1007A0007365004C41594552000A0A00556E646554
:1007B000660051777274000067616C6F0A67616C44
:1007C0006F000A0A0000010101010101010101029B
:1007D00002020202020202020303030303030303F1
:1007E00004040404040404050505050506060606BC
:1007F00006070707070708080808090909090A0A78
:100800000A0B0B0B0C0C0C0D0D0D0E0E0E0F0F0F1B
:1008100010101111111212131314141515161617A6
:1008200017181819191A1A1B1B1C1D1D1E1E1F2014
:1008300020212222232424252626272829292A2B61
:100840002C2D2D2E2F303132323334353637383986
:100850003A3B3C3D3E3F4041424344454647484980
:100860004A4C4D4E4F50515354555658595A5B5D52
:100870005E5F616264656668696B6C6D6F707273F0
:100880007577787A7B7D7E8082838587888A8C8E57
:100890008F91939596989A9C9EA0A2A3A5A7A9AB89
:1008A000ADAFB1B3B5B7BABCBEC0C2C4C6C9CBCD7B
:1008B000CFD1D4D6D8DBDDDFE2E4E7E9EBEEF0F32D
:1008C000F5F8FAFDFF00DA0281FFD9F1DB20A4A6DA
:1008D0002EAF00A0C0D30000A1C8D30000AED580C9
:1008E000A81F408D142000C500B600AC00000064B5
:1008F000321429001E001F002000210022003500B4
:1009000014001A000800150017002B000400160040
:10091000070009000A00E1001D001B000600190085
:100920000500E300E2002152E0002800A8004C008E
:10093000270026002500240023002A0013001200AF
:100940000C0018001C00340033000F000E000D00D6
:100950000B00E50038003700360010001100E700FA
:10096000E6000252E4002C00217829003A003B0006
:100970003C003D003E0035001E001F00200021000D
:1009800022002B002F0030001E0225027C00E10017
:100990004A004B004E004D004600E300E20000001C
:1009A000E0002800A80045004400430041003F004B
:1009B0003F002A0021022E002D00270226023400CB
:1009C00031022402220230022F02E50038003302F5
:1009D000330037023602E700E6000100E4002C0095
:1009E000227801003A003B003C003D003E0035000B
:1009F0001E001F0020002100220001001E021F0215
:100A000020022102220201002E002D002E022F02C0
:100A10003002010001000052010001000100440009
:100A200043004200410040003F004500000000003C
:100A300000000000000000004F0051005200500074
:100A40002302000000000000000000000000000081
:100A5000000001520000010001000005010502052F
:100A60000305040505050006010602060306040643
:100A7000050600070107020703070407050700082A
:100A80000108020803080408050800090109020911
:100A90000309040905090000010002000300040025
:100AA000050000010101020103010401050100022A
:100AB0000102020203020402050200030103020311
:100AC00003030403050300040104020403040404F3
:100AD000050411241FBECFEFDAE0DEBFCDBF11E069
:100AE000A0E0B1E0EAEAFCE502C005900D92A03A70
:100AF000B107D9F725E0A0EAB1E001C01D92A33DFE
:100B0000B207E1F70E94D7230C94E52D0C94000066
:100B10009C01892F99270097E9F09C0188E0A901A1
:100B200074E0569547957A95E1F74115510511F016
:100B30008C5F9A01A90156954795569547954115A1
:100B4000510511F08E5F9A0136952795232B09F0F8
:100B50008F5F089580E0E3CF9093800580937F05B9
:100B600008959A3098F5863088F5E82FF0E086E011
:100B7000989FE00DF11D11248E2F877041E001C078
:100B8000440F8A95EAF783E0F695E7958A95E1F7B1
:100B9000EE0FFF1FEE0FFF1FEA5BFA4F20E030E081
:100BA00070E05191DF011197CB01022E02C09695A2
:100BB00087950A94E2F7817081958527842385279C
:100BC0008C932F5F3F4F2430310559F708959A30A9
:100BD00078F5863068F5E82FF0E086E0989FE00D24
:100BE000F11D11249E2F977083E0F695E7958A9565
:100BF000E1F7EE0FFF1FEE0FFF1FEA5BFA4F40E039
:100C000050E080E0219130E0092E02C03695279512
:100C10000A94E2F721703327042E01C0220F0A94B0
:100C2000EAF7822B4F5F5F4F4430510559F7089523
:100C300080E008958091930590919205981301C0EA
:100C400008958F5F8770FACFE4EAF1E091918913FC
:100C500003C0DF0111971C9291E0EA3AF907B1F75E
:100C60000895982F909580917C05892380937C0529
:100C700008957A30B8F46630A8F48330B0F4E62FE3
:100C8000F0E096E0799FE00DF11D11249CE3899F2F
:100C9000E00DF11D1124EE0FFF1FEE50F74F85916F
:100CA0009491089580E090E0089581E0FCCF803E2B
:100CB0009105D1F1C8F48133910509F47FC048F45E
:100CC0008932910509F46FC08A32910509F47DC01B
:100CD000089589339105E1F082389105C9F0853393
:100CE000910509F45BC00895843E9105D1F148F463
:100CF000823E910531F1833E910541F181EE90E014
:100D00000895863E9105C1F1873E9105E1F1089570
:100D1000209186052370211165C02091870523FF4E
:100D200014C089E290E008952091860520FD43C01B
:100D30003091870530FF09C024FF4EC080E090E06D
:100D400008952091860522FDF7CF0895209186050C
:100D500022FD45C03091870530FD44C024FFF5CF0A
:100D6000EDCF2091870521FFF0CF8091860584FD8E
:100D7000E5CF87EE90E008952091860523FFE5CF2B
:100D800024FDDCCFF6CF2091860523FD2EC03091C7
:100D9000870531FFE3CF84EE90E00895209186052A
:100DA00025FFD3CFBECF2091860525FD21C0209100
:100DB000870523FFCACF89E390E008952091860537
:100DC00026FFC3CF8AE290E008952091860526FF92
:100DD000BCCF81E390E0089583EE90E0089582EE29
:100DE00090E0089580EE90E0089586EE90E00895FA
:100DF00085E390E0AACF2091860522FF06C0982FB8
:100E000098719830C1F4877F846090918705392F5D
:100E10003170927023FF21C0482F4871483191F4FE
:100E2000877E84619923B1F0982F9171913191F46B
:100E30008E7E88610FC0982F9471943031F78B7F2C
:100E40008860E3CF482F4471443139F48B7E886148
:100E5000911118C024FD877E0895332369F0382F3F
:100E60003871383019F4877F8160DCCF382F3171C9
:100E7000313011F48E7F8860992361F3982F987137
:100E8000983191F6877E8161E5CF1F93CF93DF93F1
:100E90000E945706EC01811522E5920708F053C025
:100EA000811540E5940708F0EAC0803E9105F8F40A
:100EB0008D3C910508F0A8C0883A910580F4853AE8
:100EC000910508F093C08130910521F00497813A93
:100ED000910550F4CE01DF91CF911F910895885A6A
:100EE00091094B9708F485C0C0E0D0E0F3CF81159D
:100EF00050E49507F8F4C11580E2D80708F0D8C08F
:100F0000C83ED10538F3CE019A9581159F4160F70F
:100F10008D2F0E94FB06182FCE0199270E9457069D
:100F2000212F30E0322F2227E901CC27DF71C82B97
:100F3000D92BD0CF99270E945706CC27DF70C82B1A
:100F4000D92BD06AC7CF803A42E5940770F5803834
:100F5000924508F086C0C03682E5D807B0F08C2FE5
:100F600086958695877020E2829FC0011124C37008
:100F700021E030E0A90102C0440F551FCA95E2F7F5
:100F8000EA01C82BD92BDA68A5CFC03452E5D507C2
:100F900008F051C0C03282E5D807C0F1CF71D0E06F
:100FA000DC2FCC27C16FD06A95CF803E22E5920717
:100FB00080F4803C42E5940708F05AC08F710E948B
:100FC000FB06C82FD0E0DC2FCC27CC27DF71D06206
:100FD00081CF96558F3F910511F008F085CFCE0156
:100FE00099270E945706EC01D06674CFA497D0646D
:100FF00071CFC85AD0E0CC0FDD1FC759DE4F099022
:10100000D881C02DD46466CFD06564CF8C2F8695EF
:10101000869550E2859FC0011124C37021E030E025
:10102000A90102C0440F551FCA95E2F7EA01C82B77
:10103000D92BDD684FCF8C2F86958695877050E22F
:10104000859FC0011124C37021E030E0A90102C0D6
:10105000440F551FCA95E2F7EA01C82BD92BDC686B
:1010600039CFCF71D0E0DC2FCC27C46FD06A32CF1C
:10107000D82FCC27CC27DF71C06FD06A2BCF8F71D0
:101080000E94FB0665E0D695C7956A95E1F7CF709B
:10109000D0E0DC2FCC27282F30E084FF05C054E0BF
:1010A000220F331F5A95E1F7C22BD32BD06912CFF1
:1010B0008D2F8F710E94FB06182FCE0199270E9459
:1010C0005706212F30E0322F222722273F71282B6D
:1010D000392BE9017CCFA0E0B0E0E1E7F8E00C9427
:1010E000D72C8C01E0908105F090820580917F05DE
:1010F00090918005E82AF92ACFE0D0E0CC24C3946F
:10110000D12CC6010C2E02C0880F991F0A94E2F759
:101110008E219F21892B49F4219798F7B12C8B2D93
:10112000CDB7DEB7E9E00C94F32CBC2EB8018C2FC0
:101130000E9439060E944507019771F3F0CF0F9383
:101140001F93CF93FC01858100811181882391F049
:10115000662381F0C8010E946B08C82F682FC80160
:101160000E94B105B8018C2F0E943906CF911F91C2
:101170000F910895C8010E94E705C82FF3CFCF93C0
:10118000DF93D82FC92F0E946B086D2F7C2F0E94F0
:1011900039060E944507DF91CF910895FC018481B3
:1011A0008823A1F0808191810E94BF08282F929509
:1011B0009F70963091F060F4925F9F70923030F49F
:1011C00081E0203F79F030F4283E30F080E004C028
:1011D0009A5FF3CF243FD1F7089581E0283E18F0BD
:1011E000213FF9CF0895089580E00895F894E82FFD
:1011F000E295EF70F0E041A18F7021E030E0B9019D
:1012000002C0660F771F8A95E2F7CB01962F909563
:10121000942391A392A1892B82A378940895089591
:101220008091680580FD14C081FD14C082FD16C048
:1012300080916705882381F08E3180F420E5829FBC
:10124000C00111246EE170E00E94112D862F0895D7
:1012500084E1089588E2089588E0089580E508957E
:101260008091680580FD17C081FD17C082FD19C0FF
:1012700080916605882399F0883298F428E0829F4F
:10128000C001112468E270E00E94112D6115710502
:1012900051F0862F089562E0FCCF64E0FACF61E060
:1012A000F8CF68E0F6CF81E00895A0E0B0E0EBE58C
:1012B000F9E00C94D62CE901E42FF0E0EB53F84F61
:1012C00061110BC0E4919E2F8E2F8983E8839A834E
:1012D000CDB7DEB7EAE00C94F22C282F30E0062FD1
:1012E00010E0F491EF2F86E0829F6001839FD00C85
:1012F0001124EE24EA94F12CC601B7010E94BA2C05
:10130000220F331F45E5469FC001479F900D1124D2
:10131000281B390B822F880F280FC701801B910BC8
:10132000F89FA001F99F500D1124952F209F500187
:10133000219FB00C1124AB2CBB24D701AA19BB09E7
:101340005D01FA9DD001FB9DB00D11248B2F57013B
:10135000A21AB1089501209F5001219FB00C309F27
:10136000B00C1124AB2CBB24EA18FB08FE9D9001A5
:10137000FF9D300D112463307105C9F01CEFC116BB
:1013800013E0D10650F46130710509F49ECF62304C
:10139000710589F08E2FE32F98CF6430710571F0BD
:1013A00066307105B9F3E52F9B2F8F2F8ECFEB2F72
:1013B000852F9F2F8ACF852F932F87CF832FE52FC0
:1013C000F8CF80917405823060F4817082608093E0
:1013D000740580917705853618F084E6809377054B
:1013E00008958031B0F381708E60F1CF21E030E05C
:1013F000A90102C0440F551F8A95E2F7CA01209146
:101400007305662339F0242B2093730581E08093C4
:10141000FD04089580952823F7CFCF93DF93EC0147
:10142000009781F460E080E00E94F60960E081E0CE
:101430000E94F60960E082E00E94F609CE01DF9189
:10144000CF910895BC0176956795617080E00E9408
:10145000F609BE017695679576956795617081E08E
:101460000E94F609BE0123E0769567952A95E1F77B
:101470006170E1CF0E940D0A9093820580938105EF
:10148000089521E030E002C0220F331F8A95E2F771
:101490008091810590918205822B932B0E943A0ABC
:1014A000089521E030E002C0220F331F8A95E2F751
:1014B0002095309580918105909182058223932318
:1014C0000E943A0A0895909184058095892380931B
:1014D0008405282F277021110DC0891759F090918C
:1014E000870592FF07C08695869586950E94510ACA
:1014F000109284050895FA01882311F00995089542
:10150000FB01FCCFFC01680F791F8FEF91E3E61719
:10151000F70709F408952191822728E030E087FF3A
:1015200008C0880F89272150310921153105B9F7E5
:10153000EECF880FF8CFA3E0B0E0E1EAFAE00C9438
:10154000DE2C9C018091D4019091D50182179307E4
:10155000A1F03093D5012093D401E0913C05F091A6
:101560003D05309751F083E089833B832A830680D1
:10157000F781E02DCE01019609952396E2E00C94C7
:10158000FA2CA3E0B0E0E7ECFAE00C94DE2C9C012E
:101590008091D2019091D30182179307A1F03093EB
:1015A000D3012093D201E0913C05F0913D053097A5
:1015B00051F084E089833B832A830680F781E02D04
:1015C000CE01019609952396E2E00C94FA2C9C0139
:1015D000FC0132968FEF90E04191461751F08F3F1A
:1015E00019F4411101C0892F9F5F9630A9F78F3FF1
:1015F00009F40895280F311D87FD3A95F90162839A
:101600000895A4E0B0E0E7E0FBE00C94DE2C8FB797
:10161000F89420912405309125054091260550919C
:10162000270529833A834B835C838FBF69817A8145
:101630008B819C812496E2E00C94FA2C8091D1015C
:101640000895FC019B018091C7019091C801861704
:10165000970740F0672B29F48091E8008E778093FC
:10166000E800C90140E0009741F4411106C08091B3
:10167000E80082FF2FC080E00895209134052223E6
:10168000A9F12530A9F12091E80023FD2DC020917A
:10169000E80022FDECCF2091E80020FFE4CF30915C
:1016A000F3002091F200009719F02830310558F02E
:1016B00041E02830310509F040E02091E8002E7724
:1016C0002093E800D0CF41914093F10001972F5F24
:1016D0003F4FE9CF80913405882341F0853041F0B8
:1016E0008091E80083FFC3CF81E0089582E00895F0
:1016F00083E008958091C10187FF13C08091E800C5
:1017000082FF06C08091E8008B778093E80004C0D8
:10171000809134058111F2CF08958091340588239A
:10172000D9F38091E80080FFF8CF8091E8008E77B0
:10173000ECCF2091E4003091E50095E6A90180917D
:10174000EC008170882331F08091E80080FF06C0B2
:1017500080E008952091E80022FD1BC080913405AF
:10176000882391F0853091F08091EB0085FD10C0C9
:101770002091E4003091E5004217530701F39150A6
:101780009111DCCF84E0089582E0089583E008950C
:1017900081E00895E8EDF0E080818E7F80831092F3
:1017A000E2001092DA001092E100A0EEB0E08C911D
:1017B00081608C9380818F77808319BCA7EDB0E026
:1017C0008C918E7F8C9380818F7E80831092C0015C
:1017D000089580918105909182059C0126703327A0
:1017E0002630310521F488600E943A0A0895877FE7
:1017F000FBCF982FE42FE2709093E900891308C083
:10180000762F242F50E0E11111C091E0980FF4CF12
:101810007091EC002091ED005091F00021FD06C088
:101820009F5F973049F78093E90008953091EB006E
:101830003E7F3093EB003091ED003D7F3093ED0023
:101840003091EB0031603093EB007093EC0020930B
:10185000ED005093F0002091EE0027FDE1CF0895B8
:10186000A0E0B0E0E6E3FCE00C94D82CC8EDD0E0BA
:1018700088818F7E8883E7EDF0E0808181608083BE
:1018800084E082BF81E08093C00188818E7F88835D
:1018900002EE10E0F80110821092DA0081EEC82EFC
:1018A000D12CF601108288818F77888388818068A7
:1018B000888388818F7D888319BC109234051092AB
:1018C000BF011092E7041092BE0190EEE92EF12CB8
:1018D000F70180818B7F808388818160888342E0EB
:1018E00060E080E00E94F90BF60180818E7F8083AA
:1018F000F801808181608083808188608083F70126
:1019000080818E7F8083888180618883CDB7DEB7B8
:10191000E8E00C94F42CE09193059091920527E077
:10192000E91302C080E00895AE2FB0E02E9FF001D1
:101930001124EC56FA4F3181361306C0308138132A
:1019400003C03581341304C0FD013196E770E8CF40
:1019500081E0089580913505811110C08091D800F3
:1019600080618093D8008AE18A95F1F700C0809168
:10197000D90080FF0AC081E08093350581E0909115
:101980003505913009F080E0089582E080933505B7
:101990000E94CA0B10923405F1CFA4E0B0E0E3ED51
:1019A000FCE00C94DE2C0E94AA0C882371F00E94AB
:1019B000010B69837A838B839C8369817A818B8114
:1019C0009C812496E2E00C94FA2C0E94010B69831E
:1019D0007A838B839C838091360590913705A09103
:1019E0003805B091390529813A814B815C81280FF6
:1019F000391F4A1F5B1F29833A834B835C83DDCFEA
:101A00000E94CD0C08950E94AA0C882359F0E09101
:101A10003C05F0913D05309729F00190F081E02DD3
:101A20000995089580E008950F931F93CF93DF9356
:101A3000EB018A0190913405943079F58093E900A7
:101A40008FEF9091E80095FD07C095ED9A95F1F71D
:101A5000000081508111F5CF8091E80085FF1DC005
:101A60000E94990B811114C08091E80085FD06C089
:101A70008091E8008E778093E800F2CF8881809390
:101A8000F100015011090115110511F02196ECCF5B
:101A90008091E8008E778093E800DF91CF911F91CD
:101AA0000F910895CF93DF93D82FC92F48E050E0CE
:101AB000682F792F81E00E94140D88E0ED2FFC2F14
:101AC000A9ECB1E001900D928A95E1F7DF91CF91F9
:101AD0000895BC0146E050E082E00E94140D089594
:101AE000BC0143E050E082E00E94140D0895A0E0A4
:101AF000B0E0EDE7FDE00C94D62CF82EE92EB62EE2
:101B0000A72E8A018091BC01CC24C394D12C8A30A9
:101B100018F48AE0C82ED12CC1E0D0E06B2D7A2DCC
:101B20008F2D9E2DF8010995811116C02196CC1696
:101B3000DD0694F0CC9FC001CD9F900D900D112437
:101B400020E030E045E34A95F1F700002F5F3F4F7A
:101B500028173907B9F7E2CFCDB7DEB7EAE00C9422
:101B6000F22C9091870592FB222720F9281779F013
:101B700080FB92F9909387056091860570918705A7
:101B800084E090E00E94CF2D82E00E94630A0895D5
:101B900080917C0590918805892B8093A20190917A
:101BA0007D05992391F0892B8093A20120E084EA9E
:101BB00091E0FC013081019631112F5F31E08A3ACA
:101BC0009307B9F7211110927D0548E050E06EE3CC
:101BD00075E082EA91E00E94772D892BA9F088E0D8
:101BE000E2EAF1E0AEE3B5E001900D928A95E1F70B
:101BF000E0913C05F0913D05309731F00280F38192
:101C0000E02D82EA91E009950895882339F09091BA
:101C10007C05892B80937C050E94C80D089588233C
:101C200021F00E9431060E94C80D0895A0E0B0E0A6
:101C3000ECE1FEE00C94D82C8901D42FC52F6B0168
:101C40007C010E94E109A8016D2F7C2F88E090E0C3
:101C50000E94C32D98014D2F5C2FB601C70100E2F1
:101C60000E94462D622F84E290E00E94B12DCDB7F4
:101C7000DEB7E8E00C94F42CE4E7F5E089E080833B
:101C800011828FEF828384E683831482758129E039
:101C900030E04FEF54E660E0868197810E94160E97
:101CA000089580917805833018F48F5F80937805CC
:101CB0002091740530917505409176055091770516
:101CC000609178057091790580917A0590917B05F6
:101CD0000E94160E089580917805882319F081508E
:101CE00080937805209174053091750540917605B3
:101CF00050917705609178057091790580917A050A
:101D000090917B050E94160E0895A8E0B0E0EBE8E4
:101D1000FEE00C94DE2C66EE7EEF80E090E00E9408
:101D2000CF2D60E082E090E00E94B12D60E083E082
:101D300090E00E94B12D1092800510927F0560E026
:101D400074E184E090E00E94CF2D60E086E090E0B6
:101D50000E94B12D6FEF87E090E00E94B12D40E02E
:101D600050E0BA0188E090E00E94C32D60E084E278
:101D700090E00E94B12D60E087E190E00E94B12DDB
:101D800060E08CE090E00E94B12D60E08DE090E09A
:101D90000E94B12D19821A821B821C821D821E8212
:101DA0001F82188648E050E068E170E0CE0101969D
:101DB0000E94A12D40E050E0BA0180E290E00E9434
:101DC000C32D40E050E0BA018FE090E00E94C32DA7
:101DD00040E050E0BA0183E190E00E94C32D2896D4
:101DE000E2E00C94FA2CA1E0B0E0E9EFFEE00C9404
:101DF000D02C462E4A01522EC32E3701A82E880F12
:101E0000BB08C5010E94452CD82E882309F476C052
:101E1000C50133E0880F991F3A95E1F7FC01EC5EAC
:101E2000FE4F2381422F50E0222311F041E050E089
:101E30008C5E9E4FDC0114966D917C91685D7A4FAB
:101E4000CE0101960E94842DF4014081518162816E
:101E500073812FB7F8948091240590912505A09166
:101E60002605B09127052FBF841B950BA60BB70B3A
:101E700084369105A105B10538F4B301C8010E946B
:101E8000820A99818917D1F1E42C042C000CFF08F7
:101E9000C7010E94452CD82E811106C0D12C8D2D52
:101EA0002196E0E10C94EC2CC70123E0880F991FE8
:101EB0002A95E1F7FC01EC5EFE4F438150E0641689
:101EC000750608F4A3018C5E9E4FDC0114966D919B
:101ED0007C91685D7A4F852D9C2D0E94842DB301E5
:101EE000C8010E94820A99818913D8CF0E94010BF0
:101EF000F4016083718382839383D1CFA301B801FE
:101F0000852D9C2D0E94842DCACFA5E0B0E0EBE882
:101F1000FFE00C94D82C6B0185E0E82EF12C09E24F
:101F200015E09E012F5F3F4F40E255E061E080E009
:101F30000E94F30E882349F095E0FE013196ABE153
:101F4000B5E001900D929A95E1F795E0EBE1F5E0AF
:101F5000D60101900D929A95E1F72596E8E00C9450
:101F6000F42CA8E0B0E0E7EBFFE00C94DD2C40910E
:101F70000F055091100560911105709112052FB752
:101F8000F8948091240590912505A0912605B091A3
:101F900027052FBF841B950BA60BB70B11E08436CA
:101FA0009105A105B10578F10E94CD0CDC01CB01B2
:101FB0000296A11DB11D89839A83AB83BC83809156
:101FC000350190913601885D9A4F20913401422F5E
:101FD00050E0253010F044E050E0BE016F5F7F4FCD
:101FE0000E94842D84E090E00E94452C182F8823C5
:101FF00051F00E94010B60930F05709310058093C0
:10200000110590931205812F2896E3E00C94F92C8A
:10201000A5E0B0E0EEE0F0E10C94D22C80917405E4
:1020200080FD0AC0E8EFF1E011821082128233963F
:1020300022E0EA3CF207C1F78090E4049090E504C6
:102040008114910409F45CC080FF5AC0A12CB12C0A
:1020500066246394712C8091730593010A2C01C04E
:10206000220F0A94EAF78223882309F43EC0F40180
:10207000E590F490E114F10409F442C045E050E029
:10208000B701CE0101960E94612D89818F3F69F1D0
:102090002A8190E0280F392F311D2734310514F0A3
:1020A00026E430E06901CC0CDD1CC20ED31E960183
:1020B00028503E4F69018C01000F111F080F191F96
:1020C00008501E4F0C151D0520F035E0E30EF11CE5
:1020D000D5CF4D81453608F044E698016C818B815F
:1020E0000E9455090D5F1F4FEDCF52E0850E911CE8
:1020F0008FEFA81AB80A98E0A916B10409F0ABCF7F
:10210000539A3BB1377F2BB128604FB7F89488EFD3
:1021100091E0FC010196508168E02BB9000000C0FD
:1021200057FF3BB9550F000000C000C000C03BB9CD
:1021300000C06A9591F752E08A3C950751F74FBF6E
:102140008FE594E00197F1F700C000002596EEE0DE
:102150000C94EE2CEF92FF921F93CF93DF93EC0140
:1021600088EFE82E81E0F82E10E0409177054536A3
:1021700008F044E68C81970160917605810F0E94FA
:1021800055091D5F83E0E80EF11C123D71F70E94B6
:1021900008109A818C8190FF08C08F5F8C83DF913B
:1021A000CF911F91FF90EF9008958150F7CFA3E05A
:1021B000B0E0EDEDF0E10C94DA2C082FF62E142FA0
:1021C000E22E8091740580FF3FC0E82FE695F0E095
:1021D000EC5BFE4F9081909371058E7F8230C1F54C
:1021E000453608F044E69E012F5F3F4F6F2D802F4C
:1021F0000E9455098091740580FF0FC08B819981E1
:102200002A81E8EFF1E0218390838283339632E0E4
:10221000EA3CF307C1F70E94081000937505F0929D
:10222000760510937705EE2079F020917405609182
:10223000780570917905302F4F2D512F80917A05B7
:1022400090917B050E94160E2396E6E00C94F62CE6
:10225000923019F700917505E0CFE4E7F5E0818150
:1022600021E043816281885F0E94D7100895E4E7EE
:10227000F5E0818121E04381628188500E94D7107E
:102280000895E4E7F5E0628121E1620F08F46FEF61
:1022900021E0438181810E94D7100895E4E7F5E0B1
:1022A000628121E1621B08F460E021E043818181C9
:1022B0000E94D7100895E4E7F5E0438121E1420F41
:1022C00008F44FEF21E0628181810E94D7100895C8
:1022D000E4E7F5E0438121E1421B08F440E021E01E
:1022E000628181810E94D7100895CF93DF93682F78
:1022F00081E06A3019F06D3031F480E00E94F51110
:10230000DF91CF9108958091D8029091D90226E073
:10231000FC01A6EBB1E001900D922A95E1F7603E39
:1023200008F458C026E0FC0111922A95E9F7C09103
:10233000D802D091D90246E050E0BE0186EB91E090
:102340000E94772D9E012A5D3240892B41F1C901FF
:1023500045E0969587954A95E1F741E050E0BA014E
:1023600002C0660F771F8A95E2F7CB016091D60213
:102370007091D702862B972BB9016B5F7F4FE5E0F9
:1023800076956795EA95E1F702C0440F551F6A9567
:10239000E2F7842B952B9093D7028093D6022A5F85
:1023A0003F4F4091E104642F70E0C9010E94BA2CB4
:1023B000481B463010F4240F311D211572E03707F9
:1023C00010F020E030E026523D4F3093D9022093A8
:1023D000D80296CFF6E06F9FB001112468527F4F6C
:1023E00046E050E00E94612DA2CFCF93382FE091BC
:1023F000D802F091D902EA5DF2402091E104622F07
:1024000070E0CF010E94BA2C281B822F332361F089
:1024100066E00E94052DC82FC15010F4CF91089599
:1024200080E20E947511F8CF9F01280F311D211500
:10243000324018F080E0E0E0F0E08E0F9F2F911D19
:1024400086529D4F9093D9028093D802E7CFCF93C5
:10245000DF93EC01FE018491811103C0DF91CF91E4
:1024600008950E9475112196F5CF0E94271281E0F0
:102470000E94F5110895A0E0B0E0E1E4F2E10C94CF
:10248000D82C7C016B0164E670E088E70E94062A84
:10249000EC0197FD12C000E010E0F701E00FF11F22
:1024A000849164E670E00E94752AEC010F5F1F4F73
:1024B000C016D10611F097FFF0CF0E94F72A81E0F5
:1024C000CD2B09F080E0CDB7DEB7E8E00C94F42C1A
:1024D0008091DC04882369F08091DB04882349F033
:1024E00062E070E086ED90E00E943B128111109254
:1024F000DB040895A4E0B0E0E0E8F2E10C94DE2C07
:102500008091DC048823F9F00E94010BDC01CB01EF
:10251000805A9541AF4FBF4F8093DD049093DE0406
:10252000A093DF04B093E0048091DB0481110BC021
:1025300062E070E084ED90E00E943B12882319F085
:1025400081E08093DB042496E2E00C94FA2C1F9245
:102550001FB61F9211248F939F93AF93BF938091C7
:10256000E604811113C08091240590912505A09166
:102570002605B09127054196A11DB11D8093240524
:1025800090932505A0932605B0932705BF91AF91A1
:102590009F918F911F901FBE1F9018952FB7F89491
:1025A0008091240590912505A0912605B0912705DD
:1025B0002FBF08950E94AA0C882319F00E94CE1202
:1025C00008950E94CD0CCB0108959091740590FF61
:1025D00039C08823C1F18830C0F58F77282F220FAA
:1025E000809174058170282B20937405662381F0F7
:1025F0003091750540917605509177056091780589
:102600007091790580917A0590917B050E94160E54
:1026100060917405669570E041E050E088E091E0DB
:102620000E946A2D892B99F01092720581E08093A7
:10263000010520E040917705609176058091750550
:102640000E94D710089581E0C9CF87E0C7CF81E00D
:10265000809372050E94DA129093FF048093FE0427
:10266000E5CF8091740586958F5F883008F081E012
:1026700061E00E94E51208959091740596958FEFA0
:10268000890F913009F487E061E00E94E512089516
:102690008091740580FF08C0869582588F778530B9
:1026A00018F40E943113089561E082E00E94E5125F
:1026B00008950E94CE1220916B0530916C05232B5A
:1026C000222321F080930C0590930D0520916D0538
:1026D00030916E05232B222321F080930A059093DD
:1026E0000B05E0913C05F0913D05309749F082E003
:1026F000809369050480F581E02D89E695E00995D0
:102700000895662309F44BC0E3E3E80FE33150F486
:10271000F0E0E951F24D0C94252D0E9410098195AD
:1027200080936C050E94591308950E941009F8CFF8
:102730000E941009819580936B05F4CF0E941009C7
:10274000FACF0E94300980936D05ECCF0E943009CA
:102750008195F9CF0E943009819580936E05E2CF73
:102760000E943009FACF815D990B21E030E001C071
:10277000220F8A95EAF780916A05822B80936A0579
:10278000D1CF80916805816080936805CBCF80911F
:1027900068058260F9CF809168058460F5CF40912B
:1027A0006B058D3C59F480916C0587FF0DC010922C
:1027B0006C05442359F41092670508C08E3C81F4DF
:1027C00080916C0518169CF3442381F080916D056F
:1027D00090916E05892B8111A5CF10926605A2CF2D
:1027E0008F3C41F447FFF0CF10926B0580916C0550
:1027F0008823E0CF803D19F41416B4F3E5CF90910F
:102800006D05893D29F41916FCF610926D05DCCF93
:102810008A3D19F497FFD8CFF8CF90916E058B3D84
:1028200029F497FFD1CF10926E05CECF8C3D19F4CD
:102830001916CCF3C9CF9FE2980F983090F4815DC0
:10284000990B21E030E0B90102C0660F771F8A952D
:10285000E2F7CB01809590916A05892380936A0500
:10286000B3CF8D3D31F4809168058E7F80936805EC
:10287000ABCF8E3D21F4809168058D7FF7CF8F3DE2
:1028800009F0A2CF809168058B7FF0CFCF93C82F3E
:102890008823A9F08CEF8C0F813A98F4E4EAF1E0F8
:1028A0008191C81709F440C021E0EA3AF207C1F764
:1028B0006C2F82EA91E00E94E70A0E94C80DCF9136
:1028C000089580E28C0F883068F4C77021E030E012
:1028D00001C0220FCA95EAF780917C05822B809374
:1028E0007C05EBCF8BE58C0F833038F42C2F2452F2
:1028F000330BC9010E949B0AE2CFE8E5EC0FEB31F4
:1029000050F4F0E0EE0FFF1FE759FE4F80819181F8
:102910000E94C10AD4CF83E38C0F833180F661E03B
:102920008C2F0E948113CBCF8C2F0E9424060E94F3
:10293000C80DBECF882381F19CEF980F913A28F4FF
:102940000E9424060E94C80D089590E2980F9830C6
:1029500050F4877091E001C0990F8A95EAF7892FAA
:102960000E943106EFCF9BE5980F933028F480E06A
:1029700090E00E949B0A089598E5980F9B3128F4F7
:1029800080E090E00E94C10A089593E3980F93318C
:1029900018F460E00E94811308951F93CF93DF9392
:1029A000182FEB010E9446148FE99FE00197F1F781
:1029B00000C0000021972097B9F7812F0E949A1438
:1029C000DF91CF911F9108956AE070E0893311F48F
:1029D00060E570E00E94CD140895CF93C62F811159
:1029E0000AC089EA611121C08AEA0E94E4146AE0FF
:1029F00070E08AEA1FC0813019F5809181059091BD
:102A000082050E948805882341F08150823050F071
:102A10008AEDC1110AC089EDE8CF8EE4C11105C06D
:102A20008BE4E3CFCC2351F081E50E94E4146AE00B
:102A300070E089EA0E94CD14CF91089582E5D5CF48
:102A40006111F5CFD4CFA1E0B0E0E9E2F5E10C945B
:102A5000D72CEE24E394F12C0FE215E09E012F5FBA
:102A60003F4F47E155E063E082E00E94F30E082FFC
:102A7000882339F1D12C80E01DC0C0901605CD0C03
:102A80002C2D30E0A9014C5E5A4F7A01E1E0F0E0D4
:102A9000EC0FFD1FED0DF11D1081FA019081191B46
:102AA000B12E1B149CF0912F17FD90E0191B1111F2
:102AB00018C0D39490911305D916F8F281110E9491
:102AC000000D802F2196E9E00C94F32CBA94F701C5
:102AD00080818F5F808360E08C2D0E94ED14802FB9
:102AE000E0CF1F5FF70180818150808361E08C2DF2
:102AF0000E94ED14802FDBCFCF9310927C05C6E0AF
:102B0000E4EAF1E0DF018C2F1D928A95E9F780E07D
:102B100090E00E949B0A80E090E00E94C10A10921F
:102B200088050E94C80DE9E6F5E0DF011D92CA950F
:102B3000E9F71092670510926605109268050E94E9
:102B40005913CF9108950E947C152FEF84E39CE0E8
:102B5000215080409040E1F700C0000088E19AE0F9
:102B60000FB6F894A895809360000FBE9093600014
:102B7000FFCFAAE2B0E0EFEBF5E10C94DD2C81ECA5
:102B800091E0FC0101962091F100208321E0893C35
:102B90009207B9F78091C201893009F456C0C8F490
:102BA000823009F4B2C0833009F481C0813071F100
:102BB0008091E80083FFE6C08091C1019091C2013D
:102BC0009A3008F0DFC0E92FF0E0E650F24D0C94A7
:102BD000252D8A3009F488C08B3051F78091C101CE
:102BE000813231F78091C5019091C601892B01F79F
:102BF0008091E800877F8093E8000E947A0B8091A3
:102C0000C301809300010E947C15D2CF8091C10145
:102C1000813A71F68091E800877F8093E800809187
:102C2000C5019091C601892B61F060E080E090E0E1
:102C300070E00E94210B8091E8008B778093E80080
:102C4000B7CF68E089EC91E0F3CF8091C101813288
:102C500009F0AECF8091C5019091C601029708F0AE
:102C6000A7CF8091E800877F8093E8008091E800FB
:102C700082FF18C09091F3008091F200029731F426
:102C80008091F100813011F0863021F48091F100C3
:102C90008093D1018091E8008B778093E8000E94B7
:102CA0007A0B86CF809134058111E0CF81CF80915E
:102CB000C101813A09F07CCF8091C5019091C60194
:102CC000892B09F075CF8091E800877F8093E80019
:102CD0008091E80080FFFCCF809100018093F1009B
:102CE0008091E8008E77D9CF8091C101813209F0BF
:102CF0005FCF8091E800877F8093E8000E947A0B85
:102D00008091C4018093BD0153CF8091C101813A6C
:102D100009F04ECF8091E800877F8093E800809192
:102D2000E80080FFFCCF8091BD01D8CF803889F0CA
:102D3000823841F58091C5018F70873018F58093F6
:102D4000E9008091EB0085FB882780F91092E9006B
:102D500006C08091BE019091E7049111826090912C
:102D6000E800977F9093E8008093F1001092F100C3
:102D70008091E8008E7723C0811116C08091C30135
:102D8000813011F18091E80083FF0AC08091E80052
:102D9000877F8093E8008091EB0080628093EB0056
:102DA000AA96E3E00C94F92C823061F78091C3017C
:102DB000882389F01092E9008091E800877F809352
:102DC000E8000E947A0BDECF81E0933009F080E0CA
:102DD0008093E704EFCF8091C5018F702FEF280F0C
:102DE000263080F68093E9002091EB0020FFE2CFAF
:102DF000933031F48091EB0080628093EB00DACF66
:102E00009091EB0090619093EB0021E030E0A901FC
:102E100002C0440F551F8A95E2F74093EA001092D2
:102E2000EA008091EB008860E8CF8111ABCF109170
:102E3000C3011F778091E3008078812B8093E300AA
:102E40008091E800877F8093E8000E947A0B809150
:102E5000E80080FFFCCF8091E30080688093E3006E
:102E600083E0111101C082E0809334058BCF80583C
:102E7000823008F087CF4091C3015091C4014C3D8E
:102E800083E0580799F583E08A838AE289834FB704
:102E9000F894DE01139620E03EE051E2E32FF0E0EB
:102EA00050935700849120FF03C082958F703F5F3D
:102EB0008F708A30C8F0895C90E08D939D932F5F6E
:102EC000243161F74FBF8091E800877F8093E8004D
:102ED0006AE270E0CE0101960E94210B8091E80029
:102EE0008B778093E8004ECF805DE6CF2091C501BF
:102EF0003091C601852F99278330910509F160F43F
:102F00008130910509F472C0029709F03BCF8BE341
:102F100090E0E3EDF6E029C08132910509F45AC052
:102F2000829709F02FCF2115310509F469C02130AE
:102F3000310509F027CF8BE790E0E8E1F6E015C016
:102F4000CA0199274130B1F18230910509F43AC0A4
:102F5000892B09F017CFEAE4F7E0E4918E2F90E097
:102F6000EAE4F7E0009709F40DCF2091E800277F0D
:102F70002093E8002091C7013091C8018217930780
:102F800008F49C0140E02115310509F03EC04111D3
:102F90003CC08091E80082FDA1CF80913405882358
:102FA00009F49CCF853009F499CF8091E80083FF24
:102FB000F0CF94CFEEE2F7E0E4918E2F90E0EEE2D6
:102FC000F7E0D0CFE0E2F7E0E4918E2F90E0E0E28E
:102FD000F7E0C8CF2115310571F02130310509F036
:102FE000D1CE89E090E0EEEFF6E0BFCF82E190E055
:102FF000EEE0F7E0BACF89E090E0E5EEF6E0B5CF9D
:1030000080E490E0E3E9F6E0B0CF809134058823D6
:1030100009F464CF853009F461CF8091E80083FD25
:103020005DCF8091E80082FDB4CF8091E80080FF01
:10303000AACF9091F3008091F2002115310519F08B
:103040008830910550F041E0089709F040E0809108
:10305000E8008E778093E80096CF44914093F1008A
:103060003196215031090196E8CF803809F08ACE97
:103070008091E800877F8093E8008091BF01809372
:10308000F10076CE81117ECE1091C301123008F08E
:1030900079CE8091E800877F8093E8001093BF018C
:1030A0000E947A0B112381F084E08093340542E082
:1030B00061EC81E00E94F90B42E261EC82E00E9447
:1030C000F90B809134055ECE8091E30087FDECCF53
:1030D00081E0EBCF9C014FB7F8948091240590914B
:1030E0002505A0912605B09127054FBF821B930BA4
:1030F00008952F923F925F926F927F928F929F924C
:10310000AF92BF92CF92DF92EF92FF920F931F93F5
:10311000CF93DF9300D000D000D0CDB7DEB7809141
:10312000DC04882309F496C08091F6019091F701A0
:103130000E946A18C29708F44FC00E94CE12909362
:10314000F7018093F6018AED92E09093D902809383
:10315000D8020E94AA0C882309F494C082EC97E05C
:103160000E94271288EB97E00E94351287EB97E0C8
:103170000E94351280917F05909180050E948805FC
:1031800081111DC082EB97E00E94351289EA97E019
:103190000E94271283EA97E00E94351280918105F0
:1031A000909182050E948805813061F0823069F03B
:1031B00081110EC08EE997E00E9427120DC08CEAA3
:1031C00097E0E2CF89E997E0F7CF84E997E0F4CF81
:1031D0008EE897E00E9435128091D6029091D70236
:1031E000892BA9F08091DC04882389F08091DA048E
:1031F00081110DC00E947A122091D6023091D7021F
:1032000080E061E070E02115310509F03FC0809158
:10321000DB048823F9F00E94010B69837A838B8396
:103220009C838091DD049091DE04A091DF04B09135
:10323000E00429813A814B815C81281B390B4A0BC0
:103240005B0BDA01C9018F3F9F4FAF4FBF4710F4AF
:103250000E9468120F900F900F900F900F900F9098
:10326000DF91CF911F910F91FF90EF90DF90CF9062
:10327000BF90AF909F908F907F906F905F903F90A6
:103280002F9008958EE497E097CF8F5F082F10E07E
:103290001B01082E02C0220C331C0A94E2F7A10184
:1032A00042235323452B89F39091E20490FD44C0BF
:1032B00098013695279536952795922F8295880FF8
:1032C00080763FE1380F809303012093060130930D
:1032D00004019093070124E630E047E050E061E00C
:1032E00071E088E70E94A52A892B09F090CFA801F8
:1032F00025E0440F551F2A95E1F78091E20480FDF7
:1033000023C046525D4F04E610E020E230E060E466
:1033100088E70E94CC2A892B09F079CF910120956A
:1033200030958091D6029091D7022823392330938B
:10333000D7022093D6026BCF880F880F880F37E013
:10334000380F20E093E0BFCFE6EDF1E080E2DF014F
:103350001D928A95E9F7E0E4F1E0FE83ED830CE34A
:1033600011E084E4C82E81E0D82E97E0592E77240E
:103370007394AD81BE818D91BE83AD83F80121919F
:103380008F01240F352F311D26523D4FE82FF0E0DD
:10339000EA52FE4F80E090E0652C681A872C082ED8
:1033A00001C0880C0A94EAF77901A12CD701BD90DD
:1033B0007D01B820662D6A19677070E0BB2D062E5E
:1033C00001C0BB0F0A94EAF79B2E719561957109B4
:1033D0006770772701C0B6946A95EAF79B286081E9
:1033E000962A9082A39468E0A612E0CF01963196C7
:1033F0008830910589F68D819E81C816D90609F01D
:10340000B8CF04E610E020E230E046ED51E07FCF97
:103410000F931F93CF93DF93C62FD42F122F8823A0
:10342000A9F060936F050E94CE129093B50180932E
:10343000B401C77081E001C0880FCA95EAF70E9405
:10344000050EDF91CF911F910F91089580916F0527
:10345000681332C08091B4019091B5010E946A183E
:103460008436910548F5CD130CC0812F0E94E414D9
:10347000D77081E001C0880FDA95EAF70E940F0E3D
:10348000E0CFC77001E0802F01C0880FCA95EAF72E
:103490000E940F0E80E28D0F883050F48D2F8770C0
:1034A00001C0000F8A95EAF7802F0E94050EDDCF3C
:1034B000812F0E94E414C5CFC77081E001C0880F3E
:1034C000CA95EAF7DBCFA0E0B0E0E9E6FAE10C94B8
:1034D000D82C7C01FC0184818823D1F161E0C701F3
:1034E0000E949F08EC01F7018581C134FEE7DF07E8
:1034F00009F43FC0C2342EE7D20779F1C0344EE759
:10350000D40759F0FE01E851FC47E730F10508F017
:1035100053C0EC5FF14D0C94252D882349F061E0F8
:1035200083E090E00E94B12D81E090E00E94AC0524
:10353000809184058770882359F0F701858188235D
:1035400039F08091870582FF03C082E00E94630A00
:10355000CDB7DEB7E8E00C94F42C882331F082E09C
:103560000E94410A0E94E90BE3CF82E00E94510AC7
:10357000F9CF882311F081E0F3CF81E0F7CF26E285
:1035800041EE61EE0E94081AD3CF27E245EE65EEC8
:10359000F9CF26E241EE60EEF5CF27E245EE64EE8C
:1035A000F1CF26E241EE62EEEDCF27E245EE66EE88
:1035B000E9CF28E241E0EBCF81110DC0C6315CE7D5
:1035C000D50709F0F9C0809170058111F3C089E237
:1035D0000E942406ECC010926F05CE01905783978D
:1035E00008F0CFC084E090E00E949B2D9093870567
:1035F00080938605FE01E150F047E232F10520F4A8
:10360000E55FF14D0C94252D8091860581608093B6
:103610008605609186057091870584E090E00E94A0
:10362000CF2D0E947C1584CF809187058860809380
:103630008705EFCF809186058260E9CF809186056E
:103640008460E5CF809186058860E1CF8091870511
:103650008160EDCF809187058260E9CF80918605FA
:103660008061D5CF809186058062D1CF809186051B
:103670008064CDCF0E947C15809186058068C7CF7D
:10368000809186058C60C3CF809187058360CFCF02
:10369000809186058E7FBBCF80918705877FC7CFBE
:1036A000809186058D7FB3CF809186058B7FAFCFCC
:1036B00080918605877FABCF809187058E7FB7CFBE
:1036C000809187058D7FB3CF809186058F7E9FCFB8
:1036D000809186058F7D9BCF809186058F7B97CFCC
:1036E0000E947C15809186058F7791CF8091860509
:1036F000837F8DCF809187058C7F99CF80918605C0
:1037000082FB992790F921E0922790FB82F990FBA8
:1037100083F97DCF80918705982F909591708E7F4A
:10372000892B90FB81F983CF90918605892F8F7B20
:1037300096FF80646CCF0E947C1590918605892F3E
:1037400097FB87F9805863CF61E08EE090E00E949C
:10375000B12D5FCF60E0F9CF90918605892F8F7EE4
:1037600094FF806154CF90918605892F8E7F90FFC2
:1037700081604DCF90918705892F877F93FF886067
:1037800056CFC6318CE7D80709F083C080917C05FD
:103790008A7A91E0811101C090E09093700565E311
:1037A000811101C069E282EA91E00E94E70A0E9469
:1037B000C80DBECE85E30CCF80917C058272FE01E0
:1037C000E052F847E531F10508F078C0E35DF14DCE
:1037D0000C94252D8091740580FF19C0282F2E7F11
:1037E00020937405309175054091760550917705C9
:1037F000609178057091790580917A0590917B05AB
:103800000E94160E109272050E94081091CE8160DF
:103810008093740561E086950E94E51289CE4CE3A1
:1038200053E161E373E10E947B0A82CE41E353E1FD
:103830006CE373E1F8CF47E351E16DE271E1F3CF5F
:103840004DE251E167E371E1EECF4EE451E161E415
:1038500071E1E9CF41E451E16EE471E1E4CF48E682
:1038600051E16BE571E1DFCF4BE551E168E671E1D4
:10387000DACF4BE65EE061E57EE0D5CF41E55EE084
:103880006BE67EE0D0CF61E081E0C6CF0E944813B6
:103890004FCECA359CE7D90709F494C008F05CC044
:1038A000C130FCE7DF0709F48BC0C3302CE7D20737
:1038B00009F480C0C115DC4709F460C0F7018581B7
:1038C00000811181882309F481C0C8010E946B081E
:1038D000C82F682FC8010E94B105B8018C2F0E9423
:1038E00039060E944507EC01F7011581C680C29494
:1038F0002FE0C222809184058770882309F1012F6F
:103900001123F9F08D2F807F803471F090E29C0FAD
:103910009830B0F0C11004C09D2F907E903281F09D
:10392000803611F4C63F61F08091870582FF08C0A0
:1039300082E00E94630A80918405877001E0811112
:1039400000E0ED2FE295EF70D03C08F037C1F0E0D9
:10395000EE5BF14D0C94252DCB355CE7D507A1F13D
:10396000CC35DC4709F0AACF8091870582FB8827F8
:1039700080F991E089270E94B10DA0CF0E947C15AB
:103980009FEFE4E3FCE09150E040F040E1F700C03D
:10399000000087E797E7909301088093000888E18B
:1039A0009AE00FB6F894A895809360000FBE9093AC
:1039B0006000FFCF6FEF7FEF80E090E00E94CF2D9F
:1039C0000E94A31581E0D7CF80E0D5CFC8010E9427
:1039D000E705C82F82CFFD2FFF70DF2ED03118F002
:1039E000D29490EFD922112331F1D11010C08C2F35
:1039F0000E944614D07FD03619F4C63F09F460C047
:103A000080918305823009F0C5C283E079C280E2EB
:103A10008C0F883010F0C11108C080917C058D2971
:103A200080937C050E94C80DE2CF809188058D2986
:103A300080938805F7CF8C2F0E949A14DD2009F41B
:103A40003FC080E28C0F883010F0C11104C08D2D72
:103A50000E94310606C0D094809188058D21809304
:103A600088050E94C80D2CC02D2F2F70D22E8D2FAF
:103A7000807F803219F0D29480EFD822CC2349F095
:103A8000C13009F46BC0112309F477C0CC20C1F117
:103A9000AECF8091870582FD2FC0112361F0D11038
:103AA00002C080E0A5CF80917C058D2980937C05A4
:103AB0000E94C80DF6CF80E00E949A14D110C7CFA3
:103AC0000023A9F08091840580FD11C0F7011582C3
:103AD0008695869586950E94410AC7010E94631AC1
:103AE000809184058695869586950E94510A60E0AE
:103AF000C7010E949F082CCD1123A1F0C11004C062
:103B00008D2D0E94050E76CF41E0C41273CF8091B7
:103B10007D059D2D9823D91609F46CCF8D298093AE
:103B20007D0568CFC110CCCF8D2D0E940F0E9091D6
:103B30007D058D2D8923882329F08D2D809589235E
:103B400080937D0580917E059D2D9823992309F40E
:103B5000B7CFD094D822D0927E05B2CF112329F0CE
:103B600055E05C1508F446CFCBCF84E08C1508F403
:103B7000A7CF8D2D0E940F0EA3CFCC20D1F3C93338
:103B800069F49FEFE7EEF3E09150E040F040E1F799
:103B900000C0000089E30E949A1492CF8FE39CE951
:103BA0000197F1F700C000008C2FF5CF8D2F86957F
:103BB00086958370882331F0813081F0112309F4D8
:103BC0007FCF18CF111105C080E090E00E949B0AC2
:103BD00077CFCE0193700E949B0A0CCF111105C0C4
:103BE00080E090E00E94C10A6BCFCE0193700E94EA
:103BF000C10A00CF612F8C2F0E948113DFCF8D2F40
:103C00008370811142C0111144C04C2F42954695DA
:103C10004770440F440F2C2F2F7030E0042E02C049
:103C2000220F331F0A94E2F780E090E0C4FF09C03E
:103C30008FE090E002C0880F991F4A95E2F78095C7
:103C40009095D695D695D370D230B1F0D33089F017
:103C500040917F0550918005D13049F0822B932B04
:103C6000842395230E94AC050E94030D29CF242BA9
:103C7000352B822B932BF6CF822B932B20917F0514
:103C80003091800582279327EDCF112329F0D0FDB5
:103C900005C00E94030DAECE823030F34C2F42950A
:103CA00046954770440F440F2C2F2F7030E0042EA0
:103CB00002C0220F331F0A94E2F780E090E0C4FFB5
:103CC00009C08FE090E002C0880F991F4A95E2F783
:103CD000809590954D2F4695469543704230B1F0B2
:103CE000433089F06091810570918205413049F03F
:103CF000822B932B862397230E943A0A0E94030D5E
:103D00005DCF262B372B822B932BF6CF822B932B39
:103D1000209181053091820582279327EDCF9D2F39
:103D20009F70D92E112339F0892F0E94410A8C2FC0
:103D30000E94050EAECF8C2F0E940F0E8D2D0E947B
:103D4000510A92CFC23F09F44AC078F4C03FD1F083
:103D5000C13F09F463C0112309F48AC0CC2009F4DF
:103D600084C08C2F0E94461494CFC33F09F441C0F5
:103D7000C43F09F44FC01111F1CFC1108BC08D2F7A
:103D80008F71DDCF1123B1F0E4E0EC1508F481CFA1
:103D90002D2F2F7181E090E002C0880F991F2A9586
:103DA000E2F72091810530918205822793270E94B6
:103DB0003A0A6FCFF5E0FC1508F456CFDF7181E0C9
:103DC00090E002C0880F991FDA95E2F720918105F3
:103DD00030918205822793270E943A0A45CF8D2F82
:103DE0008F71112319F00E94510A53CF0E94410A8A
:103DF0003BCF112361F021E030E08D2F8F71A901BD
:103E000002C0440F551F8A95E2F7CA01D0CF80E067
:103E100090E0E2CF8091870582FD08C08D2F8F71E1
:103E2000112309F48CCF0E94410A33CF112391F062
:103E30001D2F1F71812F0E94410A8091870582FFEB
:103E400007C058E0159FC00111248360809384054A
:103E5000812FE9CF81E00E94630A81E08C1508F090
:103E600003CF82E00E94630AFFCE8D2F8F71DBCFDC
:103E7000CC2009F484CFC93369F49FEFE7EEF3E077
:103E80009150E040F040E1F700C000008C2F0E940C
:103E90009A14EACE8FE39CE90197F1F7F5CFE0E1C0
:103EA000EC0FE73008F049C0F0E0E25BF14D0C9414
:103EB000252D112309F404CE8091890591E08927ED
:103EC00017C0109389057ACE81E0812780938905F8
:103ED00075CE11118FCD81E02DC011118BCD1092B7
:103EE0008905EECD112339F082E08093830581E0CE
:103EF000809389057FCD80918305823021F481E014
:103F000080938305DDCD833009F0DACD10928305EF
:103F1000E6CF112339F080918505882369F210924C
:103F2000850568CD94E09C1508F4CACD809189057B
:103F300091E0892780938905C3CD80918505CC20A8
:103F4000D9F0882341F08091890591E089278093F9
:103F500089051092850511114ACDEFE3FCE93197EF
:103F6000F1F700C000008C2F0E949A1487E0F7013F
:103F700011928A95E9F7A4CD882309F41FCE111177
:103F800039CD8091890591E0892780938905109228
:103F9000850596CD8130B8CF8091D205803178F4F7
:103FA0008091D105882359F0E091930520919205E5
:103FB0003091CD054091CC0557E02E1301C00895F6
:103FC0006E2F70E05E9FF0011124DF01AC56BA4FF6
:103FD00014968C911497882361F111968C91119706
:103FE000831327C08C91841324C015968C91159748
:103FF00081111FC012968D919C91A091CE05B09118
:10400000CF058A1B9B0B8436910598F48091D205CD
:104010008F7080618093D205E656FA4F80818F7051
:10402000806180838CEC95E00E94631A0E941A06DE
:104030000895FB013196E770C0CFADE0B0E0E3E258
:10404000F0E20C94D32C8C0186E0F801DE01189686
:1040500001900D928A95E1F7F801C080F580A28069
:10406000B380E4808CEC882E85E0982E7090D0058B
:1040700071102DC0EE2041F1FF2009F426C1C801C6
:104080000E94CE08882309F420C187E0F801D401FA
:1040900001900D928A95E1F7F1E0EF1213C0809143
:1040A000CC059091CD050E94BF0892959F709630E7
:1040B00049F4863F39F0809189058E2580938905E2
:1040C000E09285050E94CC1FFF24F39451C0D0904C
:1040D000D1058091CE059091CF059501281B390B14
:1040E000DD2009F4BAC02436310508F090C0EE2076
:1040F00059F39091CD05E1808091D205803108F08F
:1041000058C0E91214C09091CC059C1110C0F11058
:104110004AC08F7080618093D2058CEC95E00E943C
:10412000631A8091D205F8018683F12C21C0F11029
:104130003AC040E06E2D8C2D0E948B0C40E06E2D1D
:104140008C2D0E948B0CF82E8111EFCF88859985DC
:104150000E94BF08292F22952F70903470F49F7011
:104160002230A0F09923B1F0F8019681903190F4BB
:104170008F2D2D96EDE00C94EF2C2A5F2F702230BE
:1041800068F0C8010E94631AFD2CF2CF992311F048
:10419000882371F3805E883058F3F3CF803F40F37B
:1041A000815F8230F9CF8091D20581608093D20502
:1041B000BCCFE91207C09091CC059C1103C0FF2031
:1041C00009F46CC0C8010E94CE08882309F47DC0A0
:1041D000FF2009F47AC08091D205803278F02091D6
:1041E000CC053091CD053A832983BC82AB827D8298
:1041F0001E828F83CE0101960E94631A87E0F80128
:10420000ACECB5E001900D928A95E1F75BCF80911F
:10421000D205803150F48CEC95E00E94631A87E05F
:10422000F40111928A95E9F780CFEE2009F44CCF82
:104230002091CD0591812913C5CF9091CC059C117A
:10424000C1CFF110BFCF8683C8010E94631A87E0F7
:10425000F40111928A95E9F737CF24363105F8F643
:10426000EE2009F431CFFF2081F19091CD058181BD
:10427000981321C08091CC058C111DC08091D2056E
:1042800080FD10C0803170F08683807F803F39F0E0
:104290008681982F907F905F8F70892B8683C801CD
:1042A0000E94631A87E0F801ACECB5E001900D9232
:1042B0008A95E1F709CFC8010E94CE0881119ECFEF
:1042C0008091D20581608093D205C8010E94631A53
:1042D000FBCEABE1B0E0EFE6F1E20C94DD2C688FB1
:1042E000798F382F8A8F9B8F9111109288053130EA
:1042F00099F55A3088F5463078F5E42FF0E086E0FD
:10430000589FE00DF11D11249F012770332761E0B4
:1043100070E001C0660F2A95EAF7DF0173E0B695F9
:10432000A7957A95E1F7A657BA4F2C918091890508
:10433000911102C0822F8623882309F466C0CF0121
:10434000880F991FFC01E55AF54F5491FC01E65A7C
:10435000F54F4491262B2C931D8A4E8B5F8B86E064
:10436000FE017696DE011F9601900D928A95E1F787
:104370008B89882329F061E0CE010F960E949F0867
:1043800087E0FE013F96DE01189601900D928A9516
:10439000E1F7CE0108960E941D2081112BC087E015
:1043A000FE013896DE01119601900D928A95E1F793
:1043B00020919205409193058C858823D9F030E0B7
:1043C000C90101968770992750E08417950711F16C
:1043D00097E0929FD001939FB00D1124AC56BA4F35
:1043E000FE01319601900D929A95E1F78093920526
:1043F0000E941A0617E08091930590919205891307
:1044000017C06B96E3E00C94F92C862F80958223DD
:104410008C93A2CF0E947C15109292051092930566
:1044200087E0ECECF5E0DF011D928A95E9F7E2CF39
:10443000189FC00111248C569A4F0E941D2088237A
:1044400001F38091930590E00196877099278093FE
:104450009305D1CFA6E0B0E0E0E3F2E20C94DC2CCF
:104460000E94CE128C0180913A0590913B058017F5
:10447000910779F019821A820E94CE12BC014981FB
:104480005A8180E090E00E94692110933B050093DF
:104490003A052696E4E00C94F82CA3E1B0E0E3E5BD
:1044A000F2E20C94D32C1A821982FE01339688E032
:1044B000DF011D928A95E9F78CE4A82E81E0B82EE1
:1044C0008E010F5F1F4F4801EE24E394F12C27E586
:1044D000C22E21E0D22EF50181915F018F3F09F4B8
:1044E00041C0F894E82FE295EF70F0E021A18F70C1
:1044F000A70102C0440F551F8A95E2F7CA01922F07
:10450000982B91A392A18095892382A3789400C0CF
:10451000E1E5F1E031E0712C21912F3F09F465C014
:10452000A22FA295AF70A05EB0E08C9190E02F70AA
:1045300002C0959587952A95E2F78170811155C043
:10454000832F782A330FCE16DF0631F7F501319726
:1045500080818F3F11F00E94F60850EA5A95F1F7DA
:10456000D8017C920F5F1F4FB1E5AB16B1E0BB06DF
:1045700009F0B1CF4AE050E0B4018AEC92E00E9429
:10458000772D0091D502892B91F18AE0F401AAECF4
:10459000B2E001900D928A95E1F781E08093B3013A
:1045A0000E94CE129093B2018093B1018091B1012B
:1045B0009091B2010E946A180597E8F010E0085146
:1045C0001B4F45E050E06AEC72E0C8010E94772D75
:1045D000892B41F085E0EAECF2E0D80101900D92E0
:1045E0008A95E1F71092B30106C080E0AACF8091CE
:1045F000B3018111DBCF0E94AA0CE091D502882380
:1046000009F47BC01C861B869E01235F3F4F83E01D
:10461000D9011D928A95E9F70E2F10E008511B4F22
:104620008091BC018A30A0F57E01BBE0EB0EF11C4D
:1046300045E85FE0B701C8010E94770D6701882354
:1046400009F449C043E255E1B701C8010E94770D62
:10465000882309F440C041EB5FE0B701C8010E9424
:10466000770D8823C1F11092BC018091D40290E0B3
:1046700045E050E0B60188519B4F0E94772D21E024
:104680002093B001892BD1F46396EDE00C94EF2CCC
:104690008091AE019091AF010E946A18843F9140D1
:1046A00018F68091B001882379F3FE013B9685E0EE
:1046B000DF011D928A95E9F71092B001A091D40212
:1046C000B0E0A851BB4F85E0FE013B9601900D92F2
:1046D0008A95E1F7D9CF8091BC018F3F39F40E94D0
:1046E000CE129093AF018093AE01DBCF8F5F8093AA
:1046F000BC018A3008F4B9CFF2CFF0E0E851FB4FAB
:1047000085E0A9E2B5E001900D928A95E1F765E0B8
:1047100070E089E295E00E94820A8093280540912A
:10472000070550E06091060570E06C5E7A4FCE019F
:104730000B960E94842D8B8580932F0561E070E09D
:10474000CE010B960E94820A80932E05C090300500
:10475000D0903105E0903205F09033058091AA01A8
:104760009091AB01A091AC01B091AD01C816D906F2
:10477000EA06FB0609F488CFC092AA01D092AB01E9
:10478000E092AC01F092AD010E94AA0C81117CCFA5
:104790000E94010BC61AD70AE80AF90AC092360528
:1047A000D0923705E0923805F09239056DCFCDB73C
:1047B000DEB72B970FB6F894DEBF0FBECDBF85B71F
:1047C000806885BF85B7806885BF84B7877F84BFD1
:1047D0000FB6F894A895809160008861809360007E
:1047E000109260000FBE80E890E00FB6F8948093BE
:1047F0006100909361000FBE84EF98E09093A10157
:104800008093A0010E94CA0B0E94300C8091E200AC
:1048100084608093E200789480913405882399F035
:104820008091E9001091EC001795112717958F7072
:10483000182B1092E9008091E80083FD0E94B915C1
:104840001F701093E90082E084BD93E095BD9AEF5C
:1048500097BD80936E001092360510923705109226
:104860003805109239050E94AA0C809309010E9414
:10487000AA0C81110E94572B8091090191E0892790
:1048800080930605292F281B209316058091090186
:104890009093070580910901909313058091090178
:1048A000811106C084EF8093130185EF809312017C
:1048B00080911301E82FE295EF70F0E041A18F7035
:1048C00021E030E0B90102C0660F771F8A95E2F758
:1048D000CB01962F9095942391A392A1892B82A32B
:1048E00080911201E82FE295EF70F0E041A18F7006
:1048F000D90102C0AA0FBB1F8A95E2F7CD019A2FFA
:104900009095942391A392A1892B82A3EFE8F1E0E3
:104910003197F1F700C000001091070563E171E0E5
:1049200042E151E0E8E0EE2EE5E0FE2EFB018E2FA5
:10493000861B811708F4C5C1809109018091090186
:1049400090E0811101C095E09093D50285E0891B2C
:104950008093D4020CE411E071E5E72E71E0F72EAC
:10496000F80181918F018F3F11F00E94F608E01647
:10497000F106B1F701E511E067E5E62E61E0F62EFC
:10498000D8018D918D018F3F11F00E94F608E0163D
:10499000F106B1F78AE0E8EEF4E0DF01282F1D927E
:1049A0002A95E9F7EAECF2E0DF011D928A95E9F732
:1049B00080E090E00E949B2D863E9E4F11F00E9469
:1049C000850E82E090E00E948D2D8093F20484E0B9
:1049D00090E00E949B2D909387058093860583E04D
:1049E00090E00E948D2D90E00E94AC0580918105A1
:1049F000909182050E940D0A0E94AA0C811189C122
:104A000090E080E89093E2048093E1040E94002A01
:104A10006BE070E08CED98E00E943B12882309F473
:104A200043C08091E20465E070E081FD75C187EDCF
:104A300098E00E943B128823B9F16DE070E085ECAC
:104A400098E00E943B12882379F10E94010B6F834A
:104A5000788789879A87DC01CB01805A9541AF4FCF
:104A6000BF4F8093DD049093DE04A093DF04B093E6
:104A7000E004EAEDF2E080E092E0DF019C011D92AB
:104A800021503040E1F7F093D902E093D8028FEF44
:104A90009FEF9093D7028093D60281E08093DC044D
:104AA0008093DB041092DA048091E30481118DC0BD
:104AB00080E090E00E949B2D863E9E4F21F00E9458
:104AC000850E0E943C0E88E090E00E94952D6B01BF
:104AD0007C0184E290E00E948D2D282F30E040E0A0
:104AE00050E060E070E080E090E000E20E942B2D5A
:104AF000E22FA32EB42EB52FA62FF72F97018601F4
:104B000040E050E0BA01EC29A12AB22AB32BA42B31
:104B1000F52B862B972BE0937405A0927505B09228
:104B20007605B0937705A0937805F0937905809387
:104B30007A0590937B05E230C8F50E943C0E88E030
:104B400090E00E94952D6B017C0184E290E00E9430
:104B50008D2D282F30E040E050E060E070E080E0F4
:104B600090E000E20E942B2D5901B42FA52FF62FC3
:104B7000E72F9701860140E050E0BA01AC28B12A46
:104B8000B22BA32BF42BE52B862B972BA09274052D
:104B9000B0927505B0937605A0937705F0937805EC
:104BA000E093790580937A0590937B050E94E10953
:104BB000109272058091740580FF04C060E08695B4
:104BC0000E94E51281E08093E3040E94AA0C811107
:104BD00002C00E945A2B87EE98E09093E5048093E0
:104BE000E4048AE091E090933D0580933C053DEF1D
:104BF000E32E34E0F32E42E0C42ED12CCE010196F8
:104C000058E1A52EB12C8F839B8780913405853088
:104C100049F480913405853009F481C00E947C15E7
:104C20000E94030D0E944D2203EF14E028EE822E15
:104C300024E0922ED401F80191918D91EE16FF0699
:104C400009F4BFC09817C1F30E94AA0C282E712C3A
:104C5000D4016D904D01F80131908F01361441F16E
:104C60003624512C44244394832D84218823C1F07D
:104C70002220B1F059827A820E94CE129C838B83CB
:104C8000F1E0FD8391E0862D8421811101C090E047
:104C90009E8349815A816B817C818D810E9469212B
:104CA0005394440C26E05212DFCFF8013197608212
:104CB00073943AE07312CCCF0E94CD0C7724739496
:104CC00085C00191802F82958F70805E90E0DC011D
:104CD0002C91DA013D91AD01832F82958F70805E1A
:104CE00090E0DC018C9190E03F7002C09595879533
:104CF0003A95E2F78170880F30E00F7002C0359569
:104D000027950A95E2F72170822BD7018D937D01BB
:104D10000ECE93E080E276CE82ED98E08ACE80914E
:104D20003405843021F10E9468121092E60440E4B8
:104D30000FB6F894A895A09260000FBE4093600053
:104D400083B7817F846083BF83B7816083BF78949A
:104D5000889583B78E7F83BF0FB6F894A89580910E
:104D60006000886180936000109260000FBE8091A7
:104D7000E704882309F44DCF0E944D22E8EEF4E0C9
:104D800082EF94E02191211104C08E179F07D1F783
:104D900040CF80E189BD82E189BD09B400FEFDCF2D
:104DA0008091D8008F7D8093D8008091E000826050
:104DB0008093E0008091E00081FDFCCF0E947C1593
:104DC00028CF981341CF0E942A22712C0E94AA0C4E
:104DD000809172058823D9F180917105E091740565
:104DE000E695E81BE0930005823009F043C0E695A4
:104DF000F0E0E151F74FE4910E2F10E09AEA892E8E
:104E000090E1992E80910105882361F010920105AF
:104E10000E94DA129093FF048093FE04109203051F
:104E2000109202050E94DA122091FE043091FF04D4
:104E3000821B930B8F3F9F4750F4200F311F3093FD
:104E4000FF042093FE048EEF94E0F4010995809115
:104E5000FD04882361F01092FD0480917205811198
:104E600006C08091740560E086950E94E512812C51
:104E7000612C7DC000ED17E08FE0882E89E0982E30
:104E8000C1CF082D10E0F801ED5EFE4F4081E42F08
:104E9000E295EF70E05EF0E02081F801EE5EFE4FFB
:104EA0003081E32FE295EF70E05EF0E0808190E0EA
:104EB0003F7002C0959587953A95E2F78170880F0B
:104EC00030E04F7002C0359527954A95E2F7217082
:104ED000822BD801A85FBA4FEC919E2F937089174F
:104EE00009F444C0EE0FEE0FE82BEC93909006050A
:104EF000980CEF70F0E0E95AFE4F0C5F1A4F80817A
:104F0000D8019C91890F8C9320E0823084F0E92DA8
:104F1000F0E0EC5EFA4F80818F5F80830E94AA0CE4
:104F2000882321F060E0892D0E94ED1421E0F80132
:104F300080818F3F84F4E92DF0E0EC5EFA4F8081B0
:104F4000815080830E94AA0C882321F061E0892D82
:104F50000E94ED1421E0D8018C91082E000C990BD1
:104F6000B6010E94112DF8018083622A83948091FA
:104F70000705881608F485CF662039F00E94000DD9
:104F80000E9479180E947A1204C00E947918711048
:104F9000F9CF86E0E9E6F5E0AF81BB8501900D929F
:104FA0008A95E1F710926B0510926C0510926D05D1
:104FB00010926E058B819C81892B882379F08091DA
:104FC0000C0590910D050E946A189C01809167055F
:104FD000811145C02B30310508F047C08D819E817D
:104FE000892B882379F080910A0590910B050E9406
:104FF0006A189C0180916605811177C02B303105BC
:1050000008F079C046E050E06F817B8589E695E045
:105010000E94772D892B61F480916B0590916C052E
:10502000892B90916D05892B90916E05892B8111AB
:105030000E94591386E0EF81FB85A9E6B5E0019057
:105040000D928A95E1F70E94030D90910E05891744
:1050500009F4DBCD80930E050E94010BD6CD2531DE
:10506000310508F4BBCF8F3F19F08F5F8093670540
:105070001B81112359F00E94100991E011160CF0C8
:105080009FEF899F802D112480936B051C81112334
:1050900059F00E94100991E011160CF09FEF899FC2
:1050A000802D112480936C0530916B05332309F416
:1050B00095CF20916C05222309F490CF45EB340362
:1050C000C0011124892F911101C081E080936B05EB
:1050D00065EB260390011124332319F030936C05FE
:1050E0007DCF81E080936C0579CF2135310508F4BF
:1050F00089CF8F3F19F08F5F809366051D81112343
:1051000059F00E94300991E011160CF09FEF899F31
:10511000802D112480936D051E81112359F00E946A
:10512000300991E011160CF09FEF899F802D11241A
:1051300080936E0530916D05332309F463CF209180
:105140006E05222309F45ECF75EB3703C0011124ED
:10515000892F911101C081E080936D0545EB2403F7
:1051600090011124332319F030936E054BCF81E069
:1051700080936E0547CF78941F921FB61F9211241B
:105180008F939F93AF93BF938091240590912505B2
:10519000A0912605B09127050196A11DB11D809310
:1051A000240590932505A0932605B0932705BF916C
:1051B000AF919F918F911F901FBE1F9018951F92C6
:1051C0000F920FB60F9211242F933F934F935F933B
:1051D0006F937F938F939F93AF93BF93EF93FF93BF
:1051E0008091E10082FF09C08091E20082FF05C04A
:1051F0008091E1008B7F8093E1008091DA0080FF55
:1052000024C08091D80080FF20C08091DA008E7F7A
:105210008093DA008091D90080FF9BC080E189BD36
:1052200082E189BD09B400FEFDCF81E080933405A1
:105230008091C001811109C00E94CA0B0E94300CEC
:105240008091E20084608093E2008091E10080FF21
:1052500017C08091E20080FF13C08091E2008E7F32
:105260008093E2008091E20080618093E20080916F
:10527000D80080628093D80019BC85E08093340503
:105280008091E10084FF29C08091E20084FF25C065
:1052900080E189BD82E189BD09B400FEFDCF809126
:1052A000D8008F7D8093D8008091E1008F7E80931D
:1052B000E1008091E2008F7E8093E2008091E20025
:1052C00081608093E2008091BF01882309F447C088
:1052D00084E080933405809134058091E10083FF60
:1052E00027C08091E20083FF23C08091E100877F87
:1052F0008093E10082E0809334051092BF01809199
:10530000E1008E7F8093E1008091E2008E7F8093A8
:10531000E2008091E20080618093E20042E060E080
:1053200080E00E94F90B8091F00088608093F0008B
:10533000FF91EF91BF91AF919F918F917F916F916D
:105340005F914F913F912F910F900FBE0F901F9043
:10535000189519BC109234051092C00176CF809137
:10536000E30087FF02C083E0B4CF81E0B2CF1F9299
:105370000F920FB60F921124FF920F931F932F934A
:105380003F934F935F936F937F938F939F93AF93CD
:10539000BF93CF93DF93EF93FF9309EE10E0F801F3
:1053A0008081C091EC00C795CC27C7958F70FC2EEB
:1053B000F82A1082C0EFD0E08881877F88837894B4
:1053C0000E94B915F8011082888188608883CF2DEA
:1053D000CF70C083FF91EF91DF91CF91BF91AF91DB
:1053E0009F918F917F916F915F914F913F912F91FD
:1053F0001F910F91FF900F900FBE0F901F90189567
:105400001092B9008CE08093B8000895A0E0B0E05D
:10541000ECE0FAE20C94D52CB82EEB010E94CE12EF
:105420006C01EE24E394F12CC431D10560F025E049
:10543000E22EF12CCF3FDC0731F0CE0164E170E0C9
:105440000E94BA2C7B0184EAA82E94E8992E10922F
:10545000BC00A092BC000E94CE12182F092F809190
:10546000BC0087FF0CC08091B900887F8830F9F0BC
:105470008091B900887F8031D1F00FEF08C0812F73
:10548000902F0E946A18E816F90648F70EEF1FEFF2
:10549000CF3FDC07E1F2C6010E946A18C817D9079E
:1054A000B0F6C801CDB7DEB7EBE00C94F12CB092AA
:1054B000BB009092BC000E94CE12182F092F809141
:1054C000BC0087FF0AC02091B900287F283111F065
:1054D000203499F600E010E0E4CF812F902F0E9455
:1054E0006A18E816F90658F7D1CF0F931F93CF9398
:1054F000DF93EB018093BB0084E88093BC000E94A3
:10550000CE12182F092F8091BC0087FF11C0209167
:10551000B900287F81E090E0283211F480E090E02B
:10552000919581959109DF91CF911F910F910895E8
:10553000CF3FDC0741F3812F902F0E946A18C817D4
:10554000D90708F78EEF9FEFEECFA0E0B0E0EBEACF
:10555000FAE20C94D82C6B018A01F22EE32E622F12
:10556000732F0E94062AAC01E6010C0D1D1DC01709
:10557000D10711F057FF09C084E98093BC00CA012C
:10558000CDB7DEB7E8E00C94F42C6F2D7E2D899119
:105590000E94752AAC01EBCFA0E0B0E0E2EDFAE2A8
:1055A0000C94D82CC62F6A017901B8010E94062AF2
:1055B0009C0197FD0DC0B8018C2F0E94752A9C019B
:1055C000E601EC0CFD1CCE15DF0511F037FF09C01C
:1055D00084E98093BC00C901CDB7DEB7E8E00C9444
:1055E000F42CB80189910E94752A9C01ECCF84E9C2
:1055F0008093BC0008958EE14A9B03C081508111C5
:10560000FBCF4A9BFECF08955A9880E28A95F1F726
:105610005A9A0895FC013BE03A95F1F798E020E0B2
:1056200080E031E040E14A95F1F7880F4A9B02C0E3
:105630008160232742E04A95F1F7000040E14A9556
:10564000F1F791509111EECF90E19A95F1F799B160
:1056500032E03A95F1F7000040E14A95F1F792FB0C
:10566000992790F992272081920F90830895A1E0C5
:10567000B0E0EDE3FBE20C94DA2C19828C017C01A2
:10568000E60EF11C0E151F0541F481E09981911180
:1056900080E02196E6E00C94F62C0E94FB2ACE01D5
:1056A00001960E940A2BF80181938F01EBCF529A49
:1056B0005A9A089552985A9AEA9AE9E6F0E0808157
:1056C0008F7C808308956150770B91E001C0990F22
:1056D0006A95EAF7692F90E021E0611108C09923EB
:1056E00099F05A9A80E28A95F1F75A980895362FE0
:1056F0003823332339F05A9A922730E23A95F1F75A
:105700006695EBCF5A98F9CF5A98ECCFFF920F934A
:105710001F93CF93DF93EC018C01060F111DC0176F
:10572000D10729F4CDB7DEB7E5E00C94F72CF9905A
:105730000E94042B68E08F2D0E94632BF0CF1F92F4
:105740000F920FB60F9211240F931F932F933F9335
:105750004F935F936F937F938F939F93AF93BF9379
:10576000EF93FF93CF93DF930F92CDB7DEB71982FC
:105770000E94FB2ACE0101960E940A2B082F069553
:1057800006950695982F92959570202F2570920F6B
:10579000292F237096959695920F98279770898157
:1057A000892B81115CC0063008F059C080E18A95D0
:1057B000F1F75A9A529A82E08A95F1F700C05A9806
:1057C00088E0089F80011124D801AC5EBE4F169678
:1057D000ED91FC9117973097A9F060916701709156
:1057E000680114962D913C911597260F371F11963D
:1057F0008D919C911297680F791F13964C91139776
:105800008C910995F801EC5EFE4F6381662351F09F
:10581000209167013091680184819581820F931FE7
:105820000E94862B0E94042B80E18A95F1F75A98FA
:1058300052985A9A80E18A95F1F7F801EC5EFE4F92
:105840006081662351F02091670130916801818168
:105850009281820F931F0E94372B0E94FB2A0F9088
:10586000DF91CF91FF91EF91BF91AF919F918F9178
:105870007F916F915F914F913F912F911F910F9168
:105880000F900FBE0F901F9018950F931F93CF93FB
:10589000DF938C0106970CF065C0F894529A5A98E1
:1058A00085E08A95F1F70000C02FC695C570802F5E
:1058B0008570C80F8C2F8370C695C69593E0000F36
:1058C000111F9A95E1F7C80FC8018C2BEC010E94BB
:1058D000042B00C068E08C2F0E94632B90E19A9506
:1058E000F1F752985A9A4A9B35C087E090E04A995E
:1058F00033C0F801EC5EFE4F6381662361F02091B6
:1059000067013091680184819581820F931F0E9405
:10591000372B882321F10E94FB2A80E28A95F1F738
:105920005A98529A90E19A95F1F7F801EC5EFE4F81
:105930006081662351F02091670130916801818177
:105940009281820F931F0E94862B0E94042B7894D1
:1059500081E009C000C0C7CF0197009749F4529A6F
:105960005A9A789480E0DF91CF911F910F9108951A
:1059700000C0BDCFAA1BBB1B51E107C0AA1FBB1FA4
:10598000A617B70710F0A61BB70B881F991F5A95CB
:10599000A9F780959095BC01CD0108952F923F9273
:1059A0004F925F926F927F928F929F92AF92BF922F
:1059B000CF92DF92EF92FF920F931F93CF93DF93DB
:1059C000CDB7DEB7CA1BDB0B0FB6F894DEBF0FBE38
:1059D000CDBF09942A88398848885F846E847D8485
:1059E0008C849B84AA84B984C884DF80EE80FD8087
:1059F0000C811B81AA81B981CE0FD11D0FB6F894FD
:105A0000DEBF0FBECDBFED010895991B79E004C044
:105A1000991F961708F0961B881F7A95C9F78095ED
:105A2000089597FB072E16F4009407D077FD09D050
:105A30000E94BA2C07FC05D03EF4909581959F4FAB
:105A40000895709561957F4F0895EE0FFF1F0590A3
:105A5000F491E02D0994002E083090F0982F872FB4
:105A6000762F652F542F432F322F22270850F4CF43
:105A7000220F331F441F551F661F771F881F991F52
:105A80000A95B2F7002D089597FD1094002E083066
:105A900098F00850232F342F452F562F672F782F3B
:105AA000892F912DF4CF15949795879577956795C4
:105AB00057954795379527950A95AAF71124002DF4
:105AC0000895FB01DC0102C005900D924150504049
:105AD000D8F70895FC014150504030F0019006166F
