:100000000C941F060C943C060C943C060C94032A9A
:100010000C943C060C943C060C943C060C943C0658
:100020000C943C060C943C060C9443270C941B281F
:100030000C940D170C943C060C943C060C943C0656
:100040000C943C060C943C060C943C060C943C0628
:100050000C943C060C941F270C943C060C943C0614
:100060000C943C060C943C060C943C060C943C0608
:100070000C943C060C943C060C943C060C943C06F8
:100080000C943C060C943C060C943C060C943C06E8
:100090000C943C060C943C060C943C060C943C06D8
:1000A0000C943C060C943C060C943C062606BFFFC0
:1000B000FFFF000000001E0680FF80260680FF80F4
:1000C000FF000000001E067B5A7026067B5A70FF58
:1000D0000000000000AF00AE07087F0807003E5B8D
:1000E0004F5B3E003E6B4F6B3E001C3E7C3E1C0057
:1000F000183C7E3C18001C577D571C001C5E7F5E20
:100100001C0000183C180000FFE7C3E7FF000018C0
:1001100024180000FFE7DBE7FF0030483A060E0036
:10012000262979292600407F05050700407F0525FF
:100130003F005A3CE73C5A007F3E1C1C0800081C4C
:100140001C3E7F0014227F2214005F5F005F5F006F
:1001500006097F017F00006689956A006060606023
:10016000600094A2FFA2940008047E0408001020FE
:100170007E20100008082A1C0800081C2A08080015
:100180001E10101010000C1E0C1E0C0030383E38D3
:100190003000060E3E0E06000000000000000000C9
:1001A0005F000000000700070000147F147F1400A8
:1001B000242A7F2A1200231308646200364956203D
:1001C0005000000807030000001C2241000000410D
:1001D000221C00002A1C7F1C2A0008083E08080078
:1001E0000080703000000808080808000000606007
:1001F00000002010080402003E5149453E00004224
:100200007F4000007249494946002141494D330071
:100210001814127F10002745454539003C4A4949CA
:100220003100412111090700364949493600464944
:1002300049291E00000014000000004034000000A6
:100240000008142241001414141414000041221454
:1002500008000201590906003E415D594E007C121A
:1002600011127C007F49494936003E41414122003C
:100270007F4141413E007F49494941007F090909C9
:1002800001003E41415173007F0808087F00004192
:100290007F4100002040413F01007F0814224100BF
:1002A0007F40404040007F021C027F007F04081016
:1002B0007F003E4141413E007F09090906003E4161
:1002C00051215E007F09192946002649494932001B
:1002D00003017F0103003F4040403F001F204020BA
:1002E0001F003F4038403F006314081463000304BC
:1002F000780403006159494D4300007F41414100AA
:10030000020408102000004141417F000402010264
:100310000400404040404000000307080000205413
:10032000547840007F28444438003844444428002E
:10033000384444287F0038545454180000087E097B
:10034000020018A4A49C78007F08040478000044EC
:100350007D4000002040403D00007F102844000008
:1003600000417F4000007C04780478007C0804048D
:100370007800384444443800FC1824241800182419
:100380002418FC007C080404080048545454240039
:1003900004043F4424003C4040207C001C204020BA
:1003A0001C003C4030403C004428102844004C9045
:1003B00090907C004464544C440000083641000096
:1003C000000077000000004136080000020102042E
:1003D00002003C2623263C000000000000004040B4
:1003E00040F0F8F8FF38FFF8F83FF8F8FF38FFF86A
:1003F000F8F040404000000000000080C0C0C08015
:100400000000C0C08000000080C0C000C0C000006C
:1004100080C0C00000000000C0C0C0C0C000C0C09C
:1004200000000000000000000000000000000000CC
:1004300000000000000000000000000000000000BC
:1004400000000000000000000000000000000000AC
:1004500000000000000000C0F0F8FC3E1E06010095
:1004600000007F4141417F007F4141417F0000808A
:10047000C0E07E5B4F5BFEC00000C000DCD7DEDE6C
:10048000DED7DC00C000000000000000000000001B
:1004900000000000000000000000000000004949CA
:1004A00049FFFFFFFFE0DFBFBF00BFBFDFE0FFFF8F
:1004B000FFFF49494900000000001F3F6060E0BFA6
:1004C0001F007F7F071E381E077F7F007F7F0E1F64
:1004D0003B716000000000007F7F0C0C0C007E7EF2
:1004E000007F7E0303007F7E03037E7E03037F7E07
:1004F000000F3E703C063C703E0F00327B49493F86
:100500007E007F7E0303001E3F69696F26000000A6
:1005100000000000000000030F1F3F3C78706000E7
:1005200000007F4141417F007F4141417F00307B9E
:100530007F7830202030787F3B0003000F7F0F0F43
:100540000F7F0F000300000000000000000000000B
:100550000000000000000000000000000000010199
:1005600001070F0F7F0F7F0F0F7E0F0F7F0F7F0F82
:100570000F07010101000000000000000000000161
:10058000010000000000000000000000000000006A
:10059000000000000000000000000000000000005B
:1005A000000000000000000000000000000000004B
:1005B000000000000000000000000000000000003B
:1005C000000000000000000000000000000000002B
:1005D000000000000000000000000000000000001B
:1005E000000000000000000000000000000000000B
:1005F00000000000000000000000000000000000FB
:1006000000000000000000000000000000000000EA
:10061000000000000000000005010980A101850321
:1006200019012AB700150126B70095017510810040
:10063000C0050C0901A101850419012AA0021501B8
:1006400026A002950175108100C005010906A101CF
:10065000050719E029E715002501950875018102B4
:100660009501750881010507190029FF150026FF6E
:10067000009506750881000508190129059505757D
:10068000019102950175039101C009023B0002012D
:1006900000A0FA0904000001030101000921110171
:1006A0000001224000070581030800010904010040
:1006B0000103000000092111010001223200070599
:1006C0008203200001120100020000000832FC87B2
:1006D000020100010200010C0353006F0066006C70
:1006E00000650000001A034A006F00730065006691
:1006F000004100640061006D00630069006B000050
:100700000004030904FFFFFFFFFFFFFFFFFFFFFFE0
:10071000FFFFFFFFFFFFFFFFFFFFFFFFFFFFFFFFE9
:10072000FFFFFFFFFFFFFFFFFFFFFFFFFFFFFFFFD9
:10073000FFFFFFFFFFFFFFFFFFFFFC1FFFFFFC0F9F
:10074000FFFFFC0FFFFFE3E7FFFFE3E7FFFF8EF98B
:10075000FFFF8EF9FFFF3F7CFFFF3F7CFFFF3F7EE7
:10076000FFFF3F3FFFFF3F7FFFC47FDFBFC47FDF4F
:10077000BFD07FFFDFD07FFFDFB9FFFFDFB9FFF51D
:10078000FFB9FFFDFFB9FFFCFFBBFFFCFF9BFFFCB8
:100790006F9BFFFC6F83FFFC3F83FFFC3F87FFFCE9
:1007A0003F87FFFC3F87FFFE17E7FFFE1727FFFE8F
:1007B0000707FFFE0707FFFE070FF7FE470FF7FECD
:1007C000670F77FF632F77FF634F7FFF736F7FFFA5
:1007D000F34F7FFFF30F7EFFFB4F7EFFFB477EFF54
:1007E000FB467EFFFB467EF8FB467EF8FB443E3030
:1007F000FB403C00FB003C00BB003C80BB003C805D
:10080000BB0001803B0001807B00018023800180D0
:10081000238001801180018011800180318001805E
:10082000318001803180C3843180C1841180238074
:10083000118023801181378011813F8031813F8079
:1008400031813FB031813FF031813FF831811FD894
:1008500031811FF801801FF801C01FF801C01FF887
:1008600001C01FF801C0DFF801C1FFF801C1FFF8A6
:1008700001C1FFF801C17FF801C17FF801C1FFF894
:1008800001C1FFF801C1FFF801C1FFF801C1FFF884
:1008900001C1FFF801C1FFF801C1FBF801C1FBF87C
:1008A00001C1FFF801C1FFF801C1FFF801C1FFF864
:1008B00001C1FFF801C1FFF801C1FFF801C0FFF855
:1008C00000C0FFF800C03FF000C03FF000C01FF0C4
:1008D00000C00FB800C00FB800C0007800C00070A2
:1008E00000C0007000C0007000C0006000C0006068
:1008F00000C0006000C0006000C0004000C03000C8
:1009000000C0380000556E6465660030303031003C
:10091000303030320042617365004C41594552001D
:100920000A0A000067616C6F0A67616C6F000A0A4F
:1009300000000101010101010101010202020202A4
:100940000202020203030303030303030404040477
:10095000040404050505050506060606060707073F
:10096000070708080808090909090A0A0A0B0B0BF6
:100970000C0C0C0D0D0D0E0E0E0F0F0F1010111193
:100980001112121313141415151616171718181917
:10099000191A1A1B1B1C1D1D1E1E1F20202122227E
:1009A000232424252626272829292A2B2C2D2D2EC1
:1009B0002F30313232333435363738393A3B3C3DDB
:1009C0003E3F404142434445464748494A4C4D4ECC
:1009D0004F50515354555658595A5B5D5E5F616292
:1009E00064656668696B6C6D6F7072737577787A21
:1009F0007B7D7E8082838587888A8C8E8F9193957C
:100A000096989A9C9EA0A2A3A5A7A9ABADAFB1B39F
:100A1000B5B7BABCBEC0C2C4C6C9CBCDCFD1D4D67F
:100A2000D8DBDDDFE2E4E7E9EBEEF0F3F5F8FAFD21
:100A3000FF00DA0281FFD9F1DB20A4A62EAF00A0CF
:100A4000C0D30000A1C8D30000AED580A81F408D40
:100A5000142000C500B600AC00000064321435005C
:100A60001E001F00200021002200290014001A008F
:100A7000080015001700E100040016000700090037
:100A80000A002B001D001B00060019000500E300F2
:100A9000E2002152E0002C00A8004C0027002600B4
:100AA0002500240023002A00130012000C00180067
:100AB0001C00340033000F000E000D000B00E50099
:100AC00038003700360010001100E700E600015240
:100AD000E4002800217835003A003B003C003D004E
:100AE0003E0029002502310238022D002102E100DA
:100AF0002F0030002F0230021E022B004A004B0054
:100B00004E004D004600E300E2000052E0002C00E1
:100B1000A80045004400430041003F003F002A0078
:100B20002002240222022702260234004F00510034
:100B3000520050002E00E500380033023300370227
:100B40003602E700E6000052E400280022780100A7
:100B50003A003B003C003D003E0035001E001F00F7
:100B600020002100220001001E021F02200221029B
:100B7000220201002E002D002E022F023002010061
:100B80000100005201000100010044004300420046
:100B9000410040003F004500000000000000000050
:100BA000000000004F0051005200500023020000DE
:100BB00000000000000000000000000000000152E2
:100BC0000000010001000005010502050305040500
:100BD00005050006010602060306040605060007D1
:100BE00001070207030704070507000801080208B8
:100BF000030804080508000901090209030904099A
:100C000005090000010002000300040005000001C6
:100C100001010201030104010501000201020202B7
:100C20000302040205020003010302030303040399
:100C30000503000401040204030404040504112450
:100C40001FBECFEFDAE0DEBFCDBF11E0A0E0B1E024
:100C5000ECE4F9E502C005900D92A03AB107D9F78E
:100C600025E0A0EAB1E001C01D92A63CB207E1F781
:100C70000E9424230C94492C0C9400009C01892F81
:100C800099270097E9F09C0188E0A90174E0569546
:100C900047957A95E1F74115510511F08C5F9A015E
:100CA000A90156954795569547954115510511F05F
:100CB0008E5F9A0136952795232B09F08F5F089553
:100CC00080E0E3CF909373058093720508959A3086
:100CD00098F5863088F5E82FF0E086E0989FE00DE3
:100CE000F11D11248E2F877041E001C0440F8A95B9
:100CF000EAF783E0F695E7958A95E1F7EE0FFF1F97
:100D0000EE0FFF1FEE5BFA4F20E030E070E05191F4
:100D1000DF011197CB01022E02C0969587950A94A8
:100D2000E2F7817081958527842385278C932F5F37
:100D30003F4F2430310559F708959A3078F58630C1
:100D400068F5E82FF0E086E0989FE00DF11D112492
:100D50009E2F977083E0F695E7958A95E1F7EE0F61
:100D6000FF1FEE0FFF1FEE5BFA4F40E050E080E008
:100D7000219130E0092E02C0369527950A94E2F7BA
:100D800021703327042E01C0220F0A94EAF7822B28
:100D90004F5F5F4F4430510559F7089580E0089543
:100DA0008091860590918505981301C008958F5F05
:100DB0008770FACFE4EAF1E09191891303C0DF0173
:100DC00011971C9291E0EA3AF907B1F70895982F2C
:100DD000909580916F05892380936F0508957A30EF
:100DE000B8F46630A8F48330B0F4E62FF0E096E073
:100DF000799FE00DF11D11249CE3899FE00DF11D09
:100E00001124EE0FFF1FE25AF54F8591949108953A
:100E100080E090E0089581E0FCCF803E9105D1F123
:100E2000C8F48133910509F47FC048F489329105F3
:100E300009F46FC08A32910509F47DC008958933A1
:100E40009105E1F082389105C9F08533910509F4E7
:100E50005BC00895843E9105D1F148F4823E91052E
:100E600031F1833E910541F181EE90E00895863E97
:100E70009105C1F1873E9105E1F108952091790531
:100E80002370211165C020917A0523FF14C089E2E7
:100E900090E008952091790520FD43C030917A05B6
:100EA00030FF09C024FF4EC080E090E008952091FB
:100EB000790522FDF7CF08952091790522FD45C0DF
:100EC00030917A0530FD44C024FFF5CFEDCF20915D
:100ED0007A0521FFF0CF8091790584FDE5CF87EE7B
:100EE00090E008952091790523FFE5CF24FDDCCF24
:100EF000F6CF2091790523FD2EC030917A0531FF80
:100F0000E3CF84EE90E008952091790525FFD3CFBB
:100F1000BECF2091790525FD21C020917A0523FFC0
:100F2000CACF89E390E008952091790526FFC3CFC9
:100F30008AE290E008952091790526FFBCCF81E3F5
:100F400090E0089583EE90E0089582EE90E0089599
:100F500080EE90E0089586EE90E0089585E390E0BD
:100F6000AACF2091790522FF06C0982F987198305A
:100F7000C1F4877F846090917A05392F3170927027
:100F800023FF21C0482F4871483191F4877E846146
:100F90009923B1F0982F9171913191F48E7E8861EF
:100FA0000FC0982F9471943031F78B7F8860E3CF16
:100FB000482F4471443139F48B7E8861911118C0F7
:100FC00024FD877E0895332369F0382F3871383037
:100FD00019F4877F8160DCCF382F3171313011F403
:100FE0008E7F8860992361F3982F9871983191F6DC
:100FF000877E8161E5CF1F93CF93DF930E940D071A
:10100000EC01811522E5920708F053C0811540E5F7
:10101000940708F0EAC0803E9105F8F48D3C9105F4
:1010200008F0A8C0883A910580F4853A910508F047
:1010300093C08130910521F00497813A910550F4D5
:10104000CE01DF91CF911F910895885A91094B9756
:1010500008F485C0C0E0D0E0F3CF811550E49507D7
:10106000F8F4C11580E2D80708F0D8C0C83ED10511
:1010700038F3CE019A9581159F4160F78D2F0E941C
:10108000B107182FCE0199270E940D07212F30E0BC
:10109000322F2227E901CC27DF71C82BD92BD0CFE3
:1010A00099270E940D07CC27DF70C82BD92BD06A57
:1010B000C7CF803A42E5940770F58038924508F032
:1010C00086C0C03682E5D807B0F08C2F869586950D
:1010D000877020E2829FC0011124C37021E030E0BC
:1010E000A90102C0440F551FCA95E2F7EA01C82BB7
:1010F000D92BDA68A5CFC03452E5D50708F051C026
:10110000C03282E5D807C0F1CF71D0E0DC2FCC2708
:10111000C16FD06A95CF803E22E5920780F4803C73
:1011200042E5940708F05AC08F710E94B107C82F9A
:10113000D0E0DC2FCC27CC27DF71D06281CF965551
:101140008F3F910511F008F085CFCE0199270E94BD
:101150000D07EC01D06674CFA497D06471CFC85A44
:10116000D0E0CC0FDD1FC759DE4F0990D881C02DCC
:10117000D46466CFD06564CF8C2F8695869550E277
:10118000859FC0011124C37021E030E0A90102C095
:10119000440F551FCA95E2F7EA01C82BD92BDD6829
:1011A0004FCF8C2F86958695877050E2859FC00122
:1011B0001124C37021E030E0A90102C0440F551F83
:1011C000CA95E2F7EA01C82BD92BDC6839CFCF7179
:1011D000D0E0DC2FCC27C46FD06A32CFD82FCC27F9
:1011E000CC27DF71C06FD06A2BCF8F710E94B107FF
:1011F00065E0D695C7956A95E1F7CF70D0E0DC2F12
:10120000CC27282F30E084FF05C054E0220F331F85
:101210005A95E1F7C22BD32BD06912CF8D2F8F7146
:101220000E94B107182FCE0199270E940D07212F88
:1012300030E0322F222722273F71282B392BE9015A
:101240007CCFA0E0B0E0E7E2F9E00C943B2B8C010E
:10125000E0907405F090750580917205909173058A
:10126000E82AF92ACFE0D0E0CC24C394D12CC601DF
:101270000C2E02C0880F991F0A94E2F78E219F213D
:10128000892B49F4219798F7B12C8B2DCDB7DEB778
:10129000E9E00C94572BBC2EB8018C2F0E94EF066E
:1012A0000E94FB07019771F3F0CF0F931F93CF9329
:1012B000FC01858100811181882391F0662381F0F2
:1012C000C8010E942109C82F682FC8010E94670623
:1012D000B8018C2F0E94EF06CF911F910F910895B6
:1012E000C8010E949D06C82FF3CFCF93DF93D82F5C
:1012F000C92F0E9421096D2F7C2F0E94EF060E94AA
:10130000FB07DF91CF910895FC0184818823A1F030
:10131000808191810E947509282F92959F70963047
:1013200091F060F4925F9F70923030F481E0203F42
:1013300079F030F4283E30F080E004C09A5FF3CFBB
:10134000243FD1F7089581E0283E18F0213FF9CFDE
:101350000895089580E00895F894E82FE295EF70DD
:10136000F0E041A18F7021E030E0B90102C0660FCA
:10137000771F8A95E2F7CB01962F9095942391A33E
:1013800092A1892B82A3789408950895A0E0B0E0FB
:10139000ECECF9E00C943A2BE901E42FF0E0EF5C7F
:1013A000F64F61110BC0E4919E2F8E2F8983E88345
:1013B0009A83CDB7DEB7EAE00C94562B282F30E0A5
:1013C000062F10E0F491EF2F86E0829F6001839F4B
:1013D000D00C1124EE24EA94F12CC601B7010E942E
:1013E0001E2B220F331F45E5469FC001479F900DDE
:1013F0001124281B390B822F880F280FC701801B4F
:10140000910BF89FA001F99F500D1124952F209F5B
:101410005001219FB00C1124AB2CBB24D701AA1979
:10142000BB095D01FA9DD001FB9DB00D11248B2FEE
:101430005701A21AB1089501209F5001219FB00CBD
:10144000309FB00C1124AB2CBB24EA18FB08FE9D86
:101450009001FF9D300D112463307105C9F01CEF20
:10146000C11613E0D10650F46130710509F49ECF26
:101470006230710589F08E2FE32F98CF64307105AB
:1014800071F066307105B9F3E52F9B2F8F2F8ECF4A
:10149000EB2F852F9F2F8ACF852F932F87CF832FD9
:1014A000E52FF8CF80916705823060F4817082600B
:1014B0008093670580916A05853618F084E68093ED
:1014C0006A0508958031B0F381708E60F1CF21E01C
:1014D00030E0A90102C0440F551F8A95E2F7CA0106
:1014E00020916605662339F0242B2093660581E060
:1014F0008093FD04089580952823F7CFCF93DF9341
:10150000EC01009781F460E080E00E94670A60E0EF
:1015100081E00E94670A60E082E00E94670ACE01D3
:10152000DF91CF910895BC0176956795617080E059
:101530000E94670ABE0176956795769567956170FA
:1015400081E00E94670ABE0123E0769567952A959F
:10155000E1F76170E1CF0E947E0A90937505809358
:101560007405089521E030E002C0220F331F8A95F0
:10157000E2F78091740590917505822B932B0E9460
:10158000AB0A089521E030E002C0220F331F8A9594
:10159000E2F720953095809174059091750582232E
:1015A00093230E94AB0A0895909177058095892333
:1015B00080937705282F277021110DC0891759F0C6
:1015C00090917A0592FF07C08695869586950E9430
:1015D000C20A109277050895FA01882311F009953F
:1015E0000895FB01FCCFFC01680F791F8FEF91E399
:1015F000E617F70709F408952191822728E030E0E3
:1016000087FF08C0880F892721503109211531052E
:10161000B9F7EECF880FF8CFA3E0B0E0E2E1FBE04E
:101620000C94422B9C018091D4019091D50182179A
:101630009307A1F03093D5012093D401E0913805B0
:10164000F0913905309751F083E089833B832A83F9
:101650000680F781E02DCE01019609952396E2E000
:101660000C945E2BA3E0B0E0E8E3FBE00C94422B8B
:101670009C018091D2019091D30182179307A1F030
:101680003093D3012093D201E0913805F0913905D0
:10169000309751F084E089833B832A830680F78169
:1016A000E02DCE01019609952396E2E00C945E2B85
:1016B0009C01FC0132968FEF90E04191461751F06A
:1016C0008F3F19F4411101C0892F9F5F9630A9F710
:1016D0008F3F09F40895280F311D87FD3A95F901D0
:1016E00062830895A4E0B0E0E8E7FBE00C94422BAD
:1016F0008FB7F89420912005309121054091220563
:101700005091230529833A834B835C838FBF698182
:101710007A818B819C812496E2E00C945E2B8091EF
:10172000D10108950895FC019B018091C70190911A
:10173000C8018617970740F0672B29F48091E800CD
:101740008E778093E800C90140E0009741F4411191
:1017500006C08091E80082FF2FC080E008952091AC
:1017600030052223A9F12530A9F12091E80023FDBD
:101770002DC02091E80022FDECCF2091E80020FF51
:10178000E4CF3091F3002091F200009719F0283057
:10179000310558F041E02830310509F040E0209152
:1017A000E8002E772093E800D0CF41914093F100DC
:1017B00001972F5F3F4FE9CF80913005882341F09B
:1017C000853041F08091E80083FFC3CF81E0089528
:1017D00082E0089583E008958091C10187FF13C0DE
:1017E0008091E80082FF06C08091E8008B778093AB
:1017F000E80004C0809130058111F2CF08958091F6
:1018000030058823D9F38091E80080FFF8CF8091DC
:10181000E8008E77ECCF2091E4003091E50095E66A
:10182000A9018091EC008170882331F08091E8005B
:1018300080FF06C080E008952091E80022FD1BC0D3
:1018400080913005882391F0853091F08091EB00F4
:1018500085FD10C02091E4003091E5004217530748
:1018600001F391509111DCCF84E0089582E0089556
:1018700083E0089581E00895E8EDF0E080818E7FB7
:1018800080831092E2001092DA001092E100A0EE44
:10189000B0E08C9181608C9380818F77808319BCBC
:1018A000A7EDB0E08C918E7F8C9380818F7E8083BA
:1018B0001092C001089580917405909175059C0166
:1018C000267033272630310521F488600E94AB0A48
:1018D0000895877FFBCF982FE42FE2709093E90063
:1018E000891308C0762F242F50E0E11111C091E038
:1018F000980FF4CF7091EC002091ED005091F00022
:1019000021FD06C09F5F973049F78093E900089555
:101910003091EB003E7F3093EB003091ED003D7F46
:101920003093ED003091EB0031603093EB00709319
:10193000EC002093ED005093F0002091EE0027FD85
:10194000E1CF0895A0E0B0E0E8EAFCE00C943C2B85
:10195000C8EDD0E088818F7E8883E7EDF0E080815C
:101960008160808384E082BF81E08093C0018881B0
:101970008E7F888302EE10E0F80110821092DA0068
:1019800081EEC82ED12CF601108288818F77888352
:1019900088818068888388818F7D888319BC1092B4
:1019A00030051092BF011092E7041092BE0190EE34
:1019B000E92EF12CF70180818B7F80838881816003
:1019C000888342E060E080E00E946B0CF601808139
:1019D0008E7F8083F8018081816080838081886030
:1019E0008083F70180818E7F8083888180618883F6
:1019F000CDB7DEB7E8E00C94582BE09186059091C6
:101A0000850527E0E91302C080E00895AE2FB0E01D
:101A10002E9FF0011124E957FA4F3181361306C089
:101A20003081381303C03581341304C0FD01319671
:101A3000E770E8CF81E0089580913105811110C0F1
:101A40008091D80080618093D8008AE18A95F1F76F
:101A500000C08091D90080FF0AC081E080933105E9
:101A600081E090913105913009F080E0089582E0A5
:101A7000809331050E943C0C10923005F1CFA4E018
:101A8000B0E0E5E4FDE00C94422B0E941C0D88239D
:101A900071F00E94720B69837A838B839C836981C6
:101AA0007A818B819C812496E2E00C945E2B0E94CB
:101AB000720B69837A838B839C838091320590912A
:101AC0003305A0913405B091350529813A814B81C8
:101AD0005C81280F391F4A1F5B1F29833A834B8380
:101AE0005C83DDCF0E943F0D08950E941C0D88236A
:101AF00059F0E0913805F0913905309729F00190BF
:101B0000F081E02D0995089580E008950F931F93CB
:101B1000CF93DF93EB018A0190913005943079F5F2
:101B20008093E9008FEF9091E80095FD07C095ED57
:101B30009A95F1F7000081508111F5CF8091E8006E
:101B400085FF1DC00E940B0C811114C08091E8001C
:101B500085FD06C08091E8008E778093E800F2CF83
:101B600088818093F100015011090115110511F0D0
:101B70002196ECCF8091E8008E778093E800DF918A
:101B8000CF911F910F910895CF93DF93D82FC92F35
:101B900048E050E0682F792F81E00E94860D88E0B0
:101BA000ED2FFC2FA9ECB1E001900D928A95E1F7A1
:101BB000DF91CF910895BC0143E050E082E00E94A4
:101BC000860D0895A0E0B0E0E8EEFDE00C943A2B1D
:101BD000F82EE92EB62EA72E8A018091BC01CC24C6
:101BE000C394D12C8A3018F48AE0C82ED12CC1E0DD
:101BF000D0E06B2D7A2D8F2D9E2DF8010995811146
:101C000016C02196CC16DD0694F0CC9FC001CD9F66
:101C1000900D900D112420E030E045E34A95F1F756
:101C200000002F5F3F4F28173907B9F7E2CFCDB734
:101C3000DEB7EAE00C94562B90917A0592FB2227AE
:101C400020F9281779F080FB92F990937A0560913A
:101C5000790570917A0584E090E00E94332C82E04F
:101C60000E94D40A089580916F0590917B05892B7D
:101C70008093A20190917005992391F0892B809314
:101C8000A20120E084EA91E0FC013081019631114B
:101C90002F5F31E08A3A9307B9F72111109270054E
:101CA00048E050E06AE375E082EA91E00E94DB2BB5
:101CB000892BA9F088E0E2EAF1E0AAE3B5E001901F
:101CC0000D928A95E1F7E0913805F091390530974A
:101CD00031F00280F381E02D82EA91E009950895C8
:101CE000CF93C82F8823A9F08CEF8C0F813A98F4FA
:101CF000E4EAF1E08AEA91E02191C217B1F18E178E
:101D00009F07D1F76C2F82EA91E00E94580B0E9446
:101D1000330ECF91089580E28C0F883068F4C7703D
:101D200021E030E001C0220FCA95EAF780916F05EB
:101D3000822B80936F05EBCF8BE58C0F833038F4CB
:101D40002C2F2452330BC9010E940C0BE2CFC85A2E
:101D5000CB31F8F6EC2FF0E0EE0FFF1FE759FE4F06
:101D6000808191810E94320BD4CF8C2F0E94DA06A1
:101D70000E94330EC7CF882339F19CEF980F913A18
:101D800028F40E94DA060E94330E089590E2980F1C
:101D9000983050F4877091E001C0990F8A95EAF766
:101DA000892F0E94E706EFCF9BE5980F933028F428
:101DB00080E090E00E940C0B0895885A8B3120F44B
:101DC00080E090E00E94320B08951F93CF93DF9341
:101DD000182FEB010E94700E8FE99FE00197F1F739
:101DE00000C0000021972097B9F7812F0E94BB0EF9
:101DF000DF91CF911F9108956AE070E0893311F46B
:101E000060E570E00E94E50E0895CF93C62F811122
:101E10000AC089EA611121C08AEA0E94FC0E6AE0C8
:101E200070E08AEA1FC0813019F5809174059091A5
:101E300075050E943E06882341F08150823050F0A3
:101E40008AEDC1110AC089EDE8CF8EE4C11105C049
:101E50008BE4E3CFCC2351F081E50E94FC0E6AE0D5
:101E600070E089EA0E94E50ECF91089582E5D5CF12
:101E70006111F5CFD4CF882339F090916F05892B6C
:101E800080936F050E94330E0895882321F00E94ED
:101E9000E7060E94330E089510926F05E4EAF1E020
:101EA00086E0DF011D928A95E9F780E090E00E94CC
:101EB0000C0B80E090E00E94320B10927B050E9498
:101EC000330E08950E944C0F2FEF84E39CE02150C5
:101ED00080409040E1F700C0000088E19AE00FB632
:101EE000F894A895809360000FBE90936000FFCF98
:101EF000AAE2B0E0EEE7FFE00C94412B81EC91E028
:101F0000FC0101962091F100208321E0893C920799
:101F1000B9F78091C201893009F456C0C8F4823003
:101F200009F4B2C0833009F481C0813071F180912D
:101F3000E80083FFE6C08091C1019091C2019A3010
:101F400008F0DFC0E92FF0E0E55BF34D0C94892B3E
:101F50008A3009F488C08B3051F78091C1018132F9
:101F600031F78091C5019091C601892B01F78091CD
:101F7000E800877F8093E8000E94EC0B8091C3010A
:101F8000809300010E944C0FD2CF8091C101813A11
:101F900071F68091E800877F8093E8008091C50109
:101FA0009091C601892B61F060E080E090E070E0E4
:101FB0000E94930B8091E8008B778093E800B7CF65
:101FC00068E089EC91E0F3CF8091C101813209F0A2
:101FD000AECF8091C5019091C601029708F0A7CFBE
:101FE0008091E800877F8093E8008091E80082FF7D
:101FF00018C09091F3008091F200029731F4809123
:10200000F100813011F0863021F48091F10080934D
:10201000D1018091E8008B778093E8000E94EC0B5F
:1020200086CF809130058111E0CF81CF8091C101B1
:10203000813A09F07CCF8091C5019091C601892B2E
:1020400009F075CF8091E800877F8093E800809148
:10205000E80080FFFCCF809100018093F100809127
:10206000E8008E77D9CF8091C101813209F05FCF2E
:102070008091E800877F8093E8000E94EC0B8091BC
:10208000C4018093BD0153CF8091C101813A09F011
:102090004ECF8091E800877F8093E8008091E80030
:1020A00080FFFCCF8091BD01D8CF803889F0823885
:1020B00041F58091C5018F70873018F58093E90054
:1020C0008091EB0085FB882780F91092E90006C01B
:1020D0008091BE019091E704911182609091E80097
:1020E000977F9093E8008093F1001092F100809127
:1020F000E8008E7723C0811116C08091C301813022
:1021000011F18091E80083FF0AC08091E800877F89
:102110008093E8008091EB0080628093EB00AA96A8
:10212000E3E00C945D2B823061F78091C30188233A
:1021300089F01092E9008091E800877F8093E800A1
:102140000E94EC0BDECF81E0933009F080E08093B9
:10215000E704EFCF8091C5018F702FEF280F263055
:1021600080F68093E9002091EB0020FFE2CF9330CE
:1021700031F48091EB0080628093EB00DACF909194
:10218000EB0090619093EB0021E030E0A90102C0E8
:10219000440F551F8A95E2F74093EA001092EA0037
:1021A0008091EB008860E8CF8111ABCF1091C30123
:1021B0001F778091E3008078812B8093E3008091EA
:1021C000E800877F8093E8000E94EC0B8091E80094
:1021D00080FFFCCF8091E30080688093E30083E080
:1021E000111101C082E0809330058BCF805882307E
:1021F00008F087CF4091C3015091C4014C3D83E06A
:10220000580799F583E08A838AE289834FB7F89467
:10221000DE01139620E03EE051E2E32FF0E0509320
:102220005700849120FF03C082958F703F5F8F70AD
:102230008A30C8F0895C90E08D939D932F5F2431A4
:1022400061F74FBF8091E800877F8093E8006AE2E2
:1022500070E0CE0101960E94930B8091E8008B778D
:102260008093E8004ECF805DE6CF2091C50130918C
:10227000C601852F99278330910509F160F48130DB
:10228000910509F472C0029709F03BCF8BE390E00F
:10229000EAE8F6E029C08132910509F45AC0829734
:1022A00009F02FCF2115310509F469C0213031051E
:1022B00009F027CF82E390E0E8E1F6E015C0CA011B
:1022C00099274130B1F18230910509F43AC0892B48
:1022D00009F017CFE1E0F7E0E4918E2F90E0E1E024
:1022E000F7E0009709F40DCF2091E800277F2093B5
:1022F000E8002091C7013091C8018217930708F4C4
:102300009C0140E02115310509F03EC041113CC05F
:102310008091E80082FDA1CF80913005882309F4E7
:102320009CCF853009F499CF8091E80083FFF0CFEE
:1023300094CFE5EEF6E0E4918E2F90E0E5EEF6E046
:10234000D0CFE7EDF6E0E4918E2F90E0E7EDF6E0F8
:10235000C8CF2115310571F02130310509F0D1CEFA
:1023600089E090E0E5EBF6E0BFCF82E190E0E5ECBC
:10237000F6E0BACF89E090E0ECE9F6E0B5CF80E492
:1023800090E0EAE4F6E0B0CF80913005882309F4CC
:1023900064CF853009F461CF8091E80083FD5DCF83
:1023A0008091E80082FDB4CF8091E80080FFAACF41
:1023B0009091F3008091F2002115310519F08830D9
:1023C000910550F041E0089709F040E08091E80065
:1023D0008E778093E80096CF44914093F100319638
:1023E000215031090196E8CF803809F08ACE8091DA
:1023F000E800877F8093E8008091BF018093F1001F
:1024000076CE81117ECE1091C301123008F079CEC4
:102410008091E800877F8093E8001093BF010E94BD
:10242000EC0B112381F084E08093300542E061ECF5
:1024300081E00E946B0C42E261EC82E00E946B0C36
:10244000809130055ECE8091E30087FDECCF81E086
:10245000EBCFA0E0B0E0EFE2F2E10C943C2B89017D
:10246000D42FC52F6B017C010E94520AA8016D2F49
:102470007C2F88E090E00E94272C98014D2F5C2F44
:10248000B601C70100E20E94AA2B622F84E290E00D
:102490000E94152CCDB7DEB7E8E00C94582BE7E688
:1024A000F5E089E0808311828FEF828384E6838365
:1024B0001482758129E030E04FEF54E660E08681B8
:1024C00097810E942912089580916B05833018F43A
:1024D0008F5F80936B05209167053091680540916F
:1024E000690550916A0560916B0570916C0580914A
:1024F0006D0590916E050E942912089580916B05DB
:10250000882319F0815080936B05209167053091E5
:1025100068054091690550916A0560916B0570915D
:102520006C0580916D0590916E050E9429120895A9
:10253000A8E0B0E0EEE9F2E10C94422B66EE7EEF0B
:1025400080E090E00E94332C60E082E090E00E9406
:10255000152C60E083E090E00E94152C109273052A
:102560001092720560E074E184E090E00E94332CE8
:1025700060E086E090E00E94152C6FEF87E090E02D
:102580000E94152C40E050E0BA0188E090E00E94E3
:10259000272C60E084E290E00E94152C60E087E147
:1025A00090E00E94152C60E08CE090E00E94152CD9
:1025B00060E08DE090E00E94152C19821A821B8247
:1025C0001C821D821E821F82188648E050E068E14E
:1025D00070E0CE0101960E94052C40E050E0BA0167
:1025E00080E290E00E94272C40E050E0BA018FE0AA
:1025F00090E00E94272C40E050E0BA0183E190E097
:102600000E94272C2896E2E00C945E2BA1E0B0E01B
:10261000ECE0F3E10C94342B462E4A01522EC32EEB
:102620003701A82E880FBB08C5010E94A92AD82E01
:10263000882309F476C0C50133E0880F991F3A95C5
:10264000E1F7FC01EC5EFE4F2381422F50E0222394
:1026500011F041E050E08C5E9E4FDC0114966D91CC
:102660007C916C5D7A4FCE0101960E94E82BF401BB
:1026700040815181628173812FB7F8948091200548
:1026800090912105A0912205B09123052FBF841BB5
:10269000950BA60BB70B84369105A105B10538F44F
:1026A000B301C8010E94F30A99818917D1F1E42C82
:1026B000042C000CFF08C7010E94A92AD82E811102
:1026C00006C0D12C8D2D2196E0E10C94502BC70132
:1026D00023E0880F991F2A95E1F7FC01EC5EFE4F7D
:1026E000438150E06416750608F4A3018C5E9E4F8A
:1026F000DC0114966D917C916C5D7A4F852D9C2D3B
:102700000E94E82BB301C8010E94F30A9981891342
:10271000D8CF0E94720BF40160837183828393830C
:10272000D1CFA301B801852D9C2D0E94E82BCACFE3
:10273000A5E0B0E0EEE9F3E10C943C2B6B0185E001
:10274000E82EF12C05E215E09E012F5F3F4F4CE192
:1027500055E061E080E00E940613882349F095E08F
:10276000FE013196A7E1B5E001900D929A95E1F74F
:1027700095E0E7E1F5E0D60101900D929A95E1F739
:102780002596E8E00C94582BA1E0B0E0EAECF3E1E8
:102790000C943B2BEE24E394F12C0BE215E09E010C
:1027A0002F5F3F4F43E155E063E082E00E94061354
:1027B000082F882339F1D12C80E01DC0C09012056C
:1027C000CD0C2C2D30E0A901405F5A4F7A01E1E099
:1027D000F0E0EC0FFD1FED0DF11D1081FA0190816D
:1027E000191BB12E1B149CF0912F17FD90E0191BA3
:1027F000111118C0D39490910F05D916F8F28111D8
:102800000E94720D802F2196E9E00C94572BBA9408
:10281000F70180818F5F808360E08C2D0E94050F1F
:10282000802FE0CF1F5FF70180818150808361E0BE
:102830008C2D0E94050F802FDBCFA8E0B0E0E3E2F3
:10284000F4E10C94412B40910B0550910C056091E3
:102850000D0570910E052FB7F89480912005909189
:102860002105A0912205B09123052FBF841B950B54
:10287000A60BB70B11E084369105A105B10578F1DF
:102880000E943F0DDC01CB010296A11DB11D898381
:102890009A83AB83BC8380913501909136018C5D26
:1028A0009A4F20913401422F50E0253010F044E03F
:1028B00050E0BE016F5F7F4F0E94E82B84E090E004
:1028C0000E94A92A182F882351F00E94720B60934E
:1028D0000B0570930C0580930D0590930E05812FC9
:1028E0002896E3E00C945D2BA5E0B0E0EAE7F4E184
:1028F0000C94362B8091670580FD0AC0E8EFF1E06B
:10290000118210821282339622E0EA3CF207C1F76C
:102910008090E4049090E5048114910409F45CC073
:1029200080FF5AC0A12CB12C66246394712C809135
:10293000660593010A2C01C0220F0A94EAF782234C
:10294000882309F43EC0F401E590F490E114F10409
:1029500009F442C045E050E0B701CE0101960E9463
:10296000C52B89818F3F69F12A8190E0280F392F8B
:10297000311D2734310514F026E430E06901CC0C18
:10298000DD1CC20ED31E960128503E4F69018C01FA
:10299000000F111F080F191F08501E4F0C151D05A1
:1029A00020F035E0E30EF11CD5CF4D81453608F01F
:1029B00044E698016C818B810E94C6090D5F1F4F10
:1029C000EDCF52E0850E911C8FEFA81AB80A98E05F
:1029D000A916B10409F0ABCF539A3BB1377F2BB1A5
:1029E00028604FB7F89488EF91E0FC010196508180
:1029F00068E02BB9000000C057FF3BB9550F00003D
:102A000000C000C000C03BB900C06A9591F752E019
:102A10008A3C950751F74FBF8FE594E00197F1F796
:102A200000C000002596EEE00C94522BEF92FF922E
:102A30001F93CF93DF93EC0188EFE82E81E0F82E0F
:102A400010E040916A05453608F044E68C81970114
:102A500060916905810F0E94C6091D5F83E0E80E41
:102A6000F11C123D71F70E9474149A818C8190FFC1
:102A700008C08F5F8C83DF91CF911F91FF90EF9003
:102A800008958150F7CFA3E0B0E0E9E4F5E10C94BC
:102A90003E2B082FF62E142FE22E8091670580FF23
:102AA0003FC0E82FE695F0E0EC5BFE4F90819093FD
:102AB00064058E7F8230C1F5453608F044E69E01FC
:102AC0002F5F3F4F6F2D802F0E94C60980916705B1
:102AD00080FF0FC08B8199812A81E8EFF1E021838B
:102AE00090838283339632E0EA3CF307C1F70E9479
:102AF000741400936805F092690510936A05EE203E
:102B000079F02091670560916B0570916C05302F0D
:102B10004F2D512F80916D0590916E050E942912C5
:102B20002396E6E00C945A2B923019F70091680531
:102B3000E0CFE7E6F5E0818121E043816281885FB3
:102B40000E9443150895E7E6F5E0818121E0438185
:102B5000628188500E9443150895E7E6F5E062819E
:102B600021E1620F08F46FEF21E0438181810E942F
:102B700043150895E7E6F5E0628121E1621B08F460
:102B800060E021E0438181810E9443150895E7E6DA
:102B9000F5E0438121E1420F08F44FEF21E062812B
:102BA00081810E9443150895E7E6F5E0438121E124
:102BB000421B08F440E021E0628181810E944315BC
:102BC0000895CF93DF93682F81E06A3019F06D305C
:102BD00031F480E00E946116DF91CF9108958091D9
:102BE000D8029091D90226E0FC01A6EBB1E0019059
:102BF0000D922A95E1F7603E08F458C026E0FC01EA
:102C000011922A95E9F7C091D802D091D90246E0F5
:102C100050E0BE0186EB91E00E94DB2B9E012A5D15
:102C20003240892B41F1C90145E0969587954A9537
:102C3000E1F741E050E0BA0102C0660F771F8A95C4
:102C4000E2F7CB016091D6027091D702862B972BC9
:102C5000B9016B5F7F4FE5E076956795EA95E1F7FF
:102C600002C0440F551F6A95E2F7842B952B909371
:102C7000D7028093D6022A5F3F4F4091E104642F30
:102C800070E0C9010E941E2B481B463010F4240F2F
:102C9000311D211572E0370710F020E030E0265298
:102CA0003D4F3093D9022093D80296CFF6E06F9F24
:102CB000B001112468527F4F46E050E00E94C52BBE
:102CC000A2CFCF93382FE091D802F091D902EA5DDC
:102CD000F2402091E104622F70E0CF010E941E2B90
:102CE000281B822F332361F066E00E94692BC82FD6
:102CF000C15010F4CF91089580E20E94E115F8CF01
:102D00009F01280F311D2115324018F080E0E0E0CE
:102D1000F0E08E0F9F2F911D86529D4F9093D90208
:102D20008093D802E7CFCF93DF93EC01FE0184912B
:102D3000811103C0DF91CF9108950E94E115219682
:102D4000F5CFA0E0B0E0E7EAF6E10C943C2B7C0183
:102D50006B0164E670E088E70E946A28EC0197FD49
:102D600012C000E010E0F701E00FF11F849164E66B
:102D700070E00E94D928EC010F5F1F4FC016D106EA
:102D800011F097FFF0CF0E945B2981E0CD2B09F075
:102D900080E0CDB7DEB7E8E00C94582B8091DC04DE
:102DA000882369F08091DB04882349F062E070E0B9
:102DB00086ED90E00E94A11681111092DB04089527
:102DC000A4E0B0E0E6EEF6E10C94422B8091DC0446
:102DD0008823F9F00E94720BDC01CB01805A9541E7
:102DE000AF4FBF4F8093DD049093DE04A093DF04C8
:102DF000B093E0048091DB0481110BC062E070E0CD
:102E000084ED90E00E94A116882319F081E0809360
:102E1000DB042496E2E00C945E2B1F921FB61F92F7
:102E200011248F939F93AF93BF938091E6048111F8
:102E300013C08091200590912105A0912205B091A9
:102E400023054196A11DB11D809320059093210576
:102E5000A0932205B0932305BF91AF919F918F91CD
:102E60001F901FBE1F9018952FB7F89480912005D2
:102E700090912105A0912205B09123052FBF0895BF
:102E80000E941C0D882319F00E94341708950E9497
:102E90003F0DCB0108959091670590FF39C08823BD
:102EA000C1F18830C0F58F77282F220F80916705F8
:102EB0008170282B20936705662381F03091680587
:102EC0004091690550916A0560916B0570916C05A0
:102ED00080916D0590916E050E94291260916705A1
:102EE000669570E041E050E088E091E00E94CE2BD2
:102EF000892B99F01092650581E08093010520E00F
:102F000040916A0560916905809168050E944315AA
:102F1000089581E0C9CF87E0C7CF81E08093650540
:102F20000E9440179093FF048093FE04E5CF8091A8
:102F3000670586958F5F883008F081E061E00E9428
:102F40004B1708959091670596958FEF890F9130F3
:102F500009F487E061E00E944B17089580916705AE
:102F600080FF08C0869582588F77853018F40E94BC
:102F70009717089561E082E00E944B1708959C0125
:102F80004FB7F8948091200590912105A0912205DA
:102F9000B09123054FBF821B930B08952F923F9250
:102FA0005F926F927F928F929F92AF92BF92CF92D9
:102FB000DF92EF92FF920F931F93CF93DF9300D096
:102FC00000D000D0CDB7DEB78091DC04882309F4AF
:102FD00093C08091F6019091F7010E94BF17C297AC
:102FE00008F44CC00E9434179093F7018093F601C7
:102FF0008AED92E09093D9028093D8020E941C0D32
:10300000882309F491C08EE299E00E94931684E22D
:1030100099E00E94931681E00E94611683E299E094
:103020000E94931681E00E94611680E299E00E945E
:1030300093168AE199E00E94931681E00E9461163E
:1030400080917405909175050E943E06813049F08B
:10305000823051F081110BC085E199E00E949316F6
:103060000DC080E199E0FACF8BE099E0F7CF85E0E1
:1030700099E00E94931681E00E9461168091D60229
:103080009091D702892BA9F08091DC04882389F0E4
:103090008091DA0481110DC00E94E0162091D602C1
:1030A0003091D70280E061E070E02115310509F030
:1030B0003FC08091DB048823F9F00E94720B698382
:1030C0007A838B839C838091DD049091DE04A091B0
:1030D000DF04B091E00429813A814B815C81281B97
:1030E000390B4A0B5B0BDA01C9018F3F9F4FAF4F82
:1030F000BF4710F40E94CE160F900F900F900F90C4
:103100000F900F90DF91CF911F910F91FF90EF9053
:10311000DF90CF90BF90AF909F908F907F906F90F7
:103120005F903F902F90089585E097E097CF8F5F55
:10313000082F10E01B01082E02C0220C331C0A9439
:10314000E2F7A10142235323452B89F39091E20436
:1031500090FD44C098013695279536952795922F76
:103160008295880F80763FE1380F8093030120938A
:103170000601309304019093070124E630E047E014
:1031800050E061E071E088E70E940929892B09F08D
:1031900090CFA80125E0440F551F2A95E1F78091B3
:1031A000E20480FD23C046525D4F04E610E020E2B9
:1031B00030E060E488E70E943029892B09F079CF5C
:1031C0009101209530958091D6029091D7022823C5
:1031D00039233093D7022093D6026BCF880F880F04
:1031E000880F37E0380F20E093E0BFCFE6EDF1E045
:1031F00080E2DF011D928A95E9F7E0E4F1E0FE83C9
:10320000ED830CE311E084E4C82E81E0D82E97E032
:10321000592E77247394AD81BE818D91BE83AD8389
:10322000F80121918F01240F352F311D26523D4F7A
:10323000E82FF0E0EA52FE4F80E090E0652C681A3B
:10324000872C082E01C0880C0A94EAF77901A12C7A
:10325000D701BD907D01B820662D6A19677070E0B6
:10326000BB2D062E01C0BB0F0A94EAF79B2E719569
:10327000619571096770772701C0B6946A95EAF77E
:103280009B286081962A9082A39468E0A612E0CFE2
:10329000019631968830910589F68D819E81C816F8
:1032A000D90609F0B8CF04E610E020E230E046EDA0
:1032B00051E07FCF0F931F93CF93DF93C62FD42F6F
:1032C000122F8823A9F0609362050E94341790930F
:1032D000B5018093B401C77081E001C0880FCA9521
:1032E000EAF70E943B0FDF91CF911F910F91089554
:1032F00080916205681332C08091B4019091B5014C
:103300000E94BF178436910548F5CD130CC0812F5C
:103310000E94FC0ED77081E001C0880FDA95EAF7B1
:103320000E94450FE0CFC77001E0802F01C0880FD9
:10333000CA95EAF70E94450F80E28D0F883050F45D
:103340008D2F877001C0000F8A95EAF7802F0E94A9
:103350003B0FDDCF812F0E94FC0EC5CFC77081E0EF
:1033600001C0880FCA95EAF7DBCFA0E0B0E0EBEB35
:10337000F9E10C943C2B7C01FC0184818823D1F180
:1033800061E0C7010E945509EC01F7018581C13454
:10339000FEE7DF0709F43FC0C2342EE7D20779F118
:1033A000C0344EE7D40759F0FE01E851FC47E7303E
:1033B000F10508F053C0EB5AF34D0C94892B882388
:1033C00049F061E083E090E00E94152C81E090E0FC
:1033D0000E946206809177058770882359F0F70173
:1033E0008581882339F080917A0582FF03C082E0CD
:1033F0000E94D40ACDB7DEB7E8E00C94582B88239E
:1034000031F082E00E94B20A0E945B0CE3CF82E0BE
:103410000E94C20AF9CF882311F081E0F3CF81E046
:10342000F7CF26E241EE61EE0E945A19D3CF27E290
:1034300045EE65EEF9CF26E241EE60EEF5CF27E2EC
:1034400045EE64EEF1CF26E241EE62EEEDCF27E2EB
:1034500045EE66EEE9CF28E241E0EBCF81110DC0E9
:10346000C6315CE7D50709F0F9C080916305811189
:10347000F3C089E20E94DA06ECC010926205CE0128
:103480009057839708F0CFC084E090E00E94FF2B14
:1034900090937A0580937905FE01E150F047E2327E
:1034A000F10520F4E45AF34D0C94892B80917905B1
:1034B0008160809379056091790570917A0584E047
:1034C00090E00E94332C0E944C0F84CF80917A05AB
:1034D000886080937A05EFCF809179058260E9CF8B
:1034E000809179058460E5CF809179058860E1CF8E
:1034F00080917A058160EDCF80917A058260E9CF75
:10350000809179058061D5CF809179058062D1CF96
:10351000809179058064CDCF0E944C0F8091790510
:103520008068C7CF809179058C60C3CF80917A0580
:103530008360CFCF809179058E7FBBCF80917A0554
:10354000877FC7CF809179058D7FB3CF8091790533
:103550008B7FAFCF80917905877FABCF80917A0544
:103560008E7FB7CF80917A058D7FB3CF809179051B
:103570008F7E9FCF809179058F7D9BCF809179053C
:103580008F7B97CF0E944C0F809179058F7791CFD9
:1035900080917905837F8DCF80917A058C7F99CF3B
:1035A0008091790582FB992790F921E0922790FB81
:1035B00082F990FB83F97DCF80917A05982F9095C1
:1035C00091708E7F892B90FB81F983CF9091790543
:1035D000892F8F7B96FF80646CCF0E944C0F909157
:1035E0007905892F97FB87F9805863CF61E08EE0DA
:1035F00090E00E94152C5FCF60E0F9CF90917905A3
:10360000892F8F7E94FF806154CF90917905892F07
:103610008E7F90FF81604DCF90917A05892F877FB3
:1036200093FF886056CFC6318CE7D80709F083C076
:1036300080916F058A7A91E0811101C090E09093AA
:10364000630565E3811101C069E282EA91E00E94AD
:10365000580B0E94330EBECE85E30CCF80916F05D0
:103660008272FE01E052F847E531F10508F078C0BA
:10367000E258F34D0C94892B8091670580FF19C0A7
:10368000282F2E7F209367053091680540916905AA
:1036900050916A0560916B0570916C0580916D0584
:1036A00090916E050E942912109265050E94741473
:1036B00091CE81608093670561E086950E944B17EB
:1036C00089CE42EA57E167E977E10E94EC0A82CEAF
:1036D00047E957E162EA77E1F8CF43EA55E169E962
:1036E00075E1F3CF49E955E163EA75E1EECF4AEBC5
:1036F00055E16DEA75E1E9CF4DEA55E16AEB75E117
:10370000E4CF44ED55E167EC75E1DFCF47EC55E1DF
:1037100064ED75E1DACF4EE752E164E672E1D5CFB0
:1037200044E652E16EE772E1D0CF61E081E0C6CFBE
:103730000E94AE174FCECA359CE7D90709F494C052
:1037400008F05CC0C130FCE7DF0709F48BC0C33070
:103750002CE7D20709F480C0C115DC4709F460C02A
:10376000F701858100811181882309F481C0C80196
:103770000E942109C82F682FC8010E946706B8015E
:103780008C2F0E94EF060E94FB07EC01F7011581C8
:10379000C680C2942FE0C22280917705877088236B
:1037A00009F1012F1123F9F08D2F807F803471F002
:1037B00090E29C0F9830B0F0C11004C09D2F907E15
:1037C000903281F0803611F4C63F61F080917A0525
:1037D00082FF08C082E00E94D40A8091770587703A
:1037E00001E0811100E0ED2FE295EF70D03C08F090
:1037F00037C1F0E0ED56F34D0C94892BCB355CE7E7
:10380000D507A1F1CC35DC4709F0AACF80917A0524
:1038100082FB882780F991E089270E941C0EA0CFA7
:103820000E944C0F9FEFE4E3FCE09150E040F04039
:10383000E1F700C0000087E797E7909301088093C5
:10384000000888E19AE00FB6F894A895809360008C
:103850000FBE90936000FFCF6FEF7FEF80E090E0AE
:103860000E94332C0E94620F81E0D7CF80E0D5CF39
:10387000C8010E949D06C82F82CFFD2FFF70DF2E4A
:10388000D03118F0D29490EFD922112331F1D11018
:1038900010C08C2F0E94700ED07FD03619F4C63F16
:1038A00009F460C080917605823009F0C0C283E0DF
:1038B00074C280E28C0F883010F0C11108C0809172
:1038C0006F058D2980936F050E94330EE2CF8091A2
:1038D0007B058D2980937B05F7CF8C2F0E94BB0E33
:1038E000DD2009F43FC080E28C0F883010F0C11158
:1038F00004C08D2D0E94E70606C0D09480917B0500
:103900008D2180937B050E94330E2CC02D2F2F70AC
:10391000D22E8D2F807F803219F0D29480EFD82262
:10392000CC2349F0C13009F46BC0112309F477C0EE
:10393000CC20C1F1AECF80917A0582FD2FC011233A
:1039400061F0D11002C080E0A5CF80916F058D2974
:1039500080936F050E94330EF6CF80E00E94BB0E6D
:10396000D110C7CF0023A9F08091770580FD11C049
:10397000F70115828695869586950E94B20AC70141
:103980000E94B519809177058695869586950E9447
:10399000C20A60E0C7010E9455092CCD1123A1F095
:1039A000C11004C08D2D0E943B0F76CF41E0C412A0
:1039B00073CF809170059D2D9823D91609F46CCF93
:1039C0008D298093700568CFC110CCCF8D2D0E94BA
:1039D000450F909170058D2D8923882329F08D2D19
:1039E0008095892380937005809171059D2D982382
:1039F000992309F4B7CFD094D822D0927105B2CFD1
:103A0000112329F055E05C1508F446CFCBCF84E0B4
:103A10008C1508F4A7CF8D2D0E94450FA3CFCC2085
:103A2000D1F3C93369F49FEFE7EEF3E09150E04042
:103A3000F040E1F700C0000089E30E94BB0E92CF86
:103A40008FE39CE90197F1F700C000008C2FF5CFC0
:103A50008D2F869586958370882331F0813081F093
:103A6000112309F47FCF18CF111105C080E090E039
:103A70000E940C0B77CFCE0193700E940C0B0CCFE1
:103A8000111105C080E090E00E94320B6BCFCE0197
:103A900093700E94320B00CF8D2F8370811142C032
:103AA000111144C04C2F429546954770440F440F66
:103AB0002C2F2F7030E0042E02C0220F331F0A94E7
:103AC000E2F780E090E0C4FF09C08FE090E002C020
:103AD000880F991F4A95E2F780959095D695D695CF
:103AE000D370D230B1F0D33089F04091720550914B
:103AF0007305D13049F0822B932B842395230E94A8
:103B000062060E94750D2ECF242B352B822B932B12
:103B1000F6CF822B932B209172053091730582276B
:103B20009327EDCF112329F0D0FD05C00E94750D1C
:103B3000B3CE823030F34C2F429546954770440FF8
:103B4000440F2C2F2F7030E0042E02C0220F331FA1
:103B50000A94E2F780E090E0C4FF09C08FE090E0B3
:103B600002C0880F991F4A95E2F7809590954D2FD6
:103B70004695469543704230B1F0433089F06091EC
:103B8000740570917505413049F0822B932B862383
:103B900097230E94AB0A0E94750D62CF262B372B0C
:103BA000822B932BF6CF822B932B2091740530918F
:103BB000750582279327EDCF9D2F9F70D92E112356
:103BC00039F0892F0E94B20A8C2F0E943B0FAECF92
:103BD0008C2F0E94450F8D2D0E94C20A92CFC23FAA
:103BE00009F44AC078F4C03FD1F0C13F09F463C082
:103BF000112309F48AC0CC2009F484C08C2F0E94C0
:103C0000700E94CFC33F09F441C0C43F09F44FC0C4
:103C10001111F1CFC1108BC08D2F8F71DDCF11230A
:103C2000B1F0E4E0EC1508F481CF2D2F2F7181E085
:103C300090E002C0880F991F2A95E2F72091740541
:103C400030917505822793270E94AB0A6FCFF5E06C
:103C5000FC1508F456CFDF7181E090E002C0880FB8
:103C6000991FDA95E2F72091740530917505822746
:103C700093270E94AB0A45CF8D2F8F71112319F026
:103C80000E94C20A53CF0E94B20A3BCF112361F0B7
:103C900021E030E08D2F8F71A90102C0440F551F24
:103CA0008A95E2F7CA01D0CF80E090E0E2CF809120
:103CB0007A0582FD08C08D2F8F71112309F48CCFF6
:103CC0000E94B20A33CF112391F01D2F1F71812F53
:103CD0000E94B20A80917A0582FF07C058E0159FC2
:103CE000C0011124836080937705812FE9CF81E0A3
:103CF0000E94D40A81E08C1508F003CF82E00E9474
:103D0000D40AFFCE8D2F8F71DBCFCC2009F484CF66
:103D1000C93369F49FEFE7EEF3E09150E040F040E3
:103D2000E1F700C000008C2F0E94BB0EEACE8FE3AB
:103D30009CE90197F1F7F5CFE0E1EC0FE73008F0EF
:103D400049C0F0E0E156F34D0C94892B112309F49E
:103D500009CE80917C0591E0892717C010937C05DE
:103D60007FCE81E0812780937C057ACE111194CD9E
:103D700081E02DC0111190CD10927C05F3CD11235F
:103D800039F082E08093760581E080937C0584CDD4
:103D900080917605823021F481E080937605E2CD32
:103DA000833009F0DFCD10927605E6CF112339F08C
:103DB00080917805882369F2109278056DCD94E0A2
:103DC0009C1508F4CFCD80917C0591E089278093E4
:103DD0007C05C8CD80917805CC20D9F0882341F0AE
:103DE00080917C0591E0892780937C05109278056D
:103DF00011114FCDEFE3FCE93197F1F700C000005E
:103E00008C2F0E94BB0E87E0F70111928A95E9F78B
:103E1000A9CD882309F424CE11113ECD80917C05D3
:103E200091E0892780937C05109278059BCD8130A5
:103E3000B8CF8091C505803178F48091C40588237E
:103E400059F0E0918605209185053091C00540919B
:103E5000BF0557E02E1301C008956E2F70E05E9FDE
:103E6000F0011124DF01A957BA4F14968C911497D1
:103E7000882361F111968C911197831327C08C913F
:103E8000841324C015968C91159781111FC012962A
:103E90008D919C91A091C105B091C2058A1B9B0B8D
:103EA0008436910598F48091C5058F708061809368
:103EB000C505E357FA4F80818F70806180838FEB57
:103EC00095E00E94B5190E94D0060895FB01319635
:103ED000E770C0CFADE0B0E0E0E7FFE10C94372B36
:103EE0008C0186E0F801DE01189601900D928A950A
:103EF000E1F7F801C080F580A280B380E4808FEB09
:103F0000882E85E0982E7090C30571102DC0EE208C
:103F100041F1FF2009F426C1C8010E9484098823C9
:103F200009F420C187E0F801D40101900D928A952F
:103F3000E1F7F1E0EF1213C08091BF059091C00549
:103F40000E94750992959F70963049F4863F39F02A
:103F500080917C058E2580937C05E09278050E94F7
:103F6000191FFF24F39451C0D090C4058091C1055E
:103F70009091C2059501281B390BDD2009F4BAC0C8
:103F80002436310508F090C0EE2059F39091C00519
:103F9000E1808091C505803108F058C0E91214C055
:103FA0009091BF059C1110C0F1104AC08F708061C4
:103FB0008093C5058FEB95E00E94B5198091C505EA
:103FC000F8018683F12C21C0F1103AC040E06E2D3B
:103FD0008C2D0E94FD0C40E06E2D8C2D0E94FD0C5E
:103FE000F82E8111EFCF888599850E947509292FB8
:103FF00022952F70903470F49F702230A0F0992396
:10400000B1F0F8019681903190F48F2D2D96EDE06E
:104010000C94532B2A5F2F70223068F0C8010E9445
:10402000B519FD2CF2CF992311F0882371F3805E2E
:10403000883058F3F3CF803F40F3815F8230F9CF6F
:104040008091C50581608093C505BCCFE91207C08A
:104050009091BF059C1103C0FF2009F46CC0C801FA
:104060000E948409882309F47DC0FF2009F47AC0E6
:104070008091C505803278F02091BF053091C00550
:104080003A832983BC82AB827D821E828F83CE01DC
:1040900001960E94B51987E0F801AFEBB5E00190F9
:1040A0000D928A95E1F75BCF8091C505803150F480
:1040B0008FEB95E00E94B51987E0F40111928A9583
:1040C000E9F780CFEE2009F44CCF2091C005918113
:1040D0002913C5CF9091BF059C11C1CFF110BFCF5F
:1040E0008683C8010E94B51987E0F40111928A9570
:1040F000E9F737CF24363105F8F6EE2009F431CF51
:10410000FF2081F19091C0058181981321C0809199
:10411000BF058C111DC08091C50580FD10C0803188
:1041200070F08683807F803F39F08681982F907F62
:10413000905F8F70892B8683C8010E94B51987E034
:10414000F801AFEBB5E001900D928A95E1F709CF48
:10415000C8010E94840981119ECF8091C5058160AC
:104160008093C505C8010E94B519FBCEABE1B0E054
:10417000ECEBF0E20C94412B688F798F382F8A8F0B
:104180009B8F911110927B05313099F55A3088F54B
:10419000463078F5E42FF0E086E0589FE00DF11D01
:1041A00011249F012770332761E070E001C0660F82
:1041B0002A95EAF7DF0173E0B695A7957A95E1F7BE
:1041C000A358BA4F2C9180917C05911102C0822F87
:1041D0008623882309F466C0CF01880F991FFC014C
:1041E000E953F44F5491FC01EA53F44F4491262BC8
:1041F0002C931D8A4E8B5F8B86E0FE017696DE0146
:104200001F9601900D928A95E1F78B89882329F0FA
:1042100061E0CE010F960E94550987E0FE013F96AE
:10422000DE01189601900D928A95E1F7CE0108966D
:104230000E946A1F81112BC087E0FE013896DE01C3
:10424000119601900D928A95E1F720918505409194
:1042500086058C858823D9F030E0C90101968770E6
:10426000992750E08417950711F197E0929FD001AC
:10427000939FB00D1124A957BA4FFE0131960190BA
:104280000D929A95E1F7809385050E94D00617E07C
:104290008091860590918505891317C06B96E3E0A0
:1042A0000C945D2B862F809582238C93A2CF0E9445
:1042B0004C0F109285051092860587E0EFEBF5E034
:1042C000DF011D928A95E9F7E2CF189FC001112402
:1042D00089579A4F0E946A1F882301F380918605AF
:1042E00090E001968770992780938605D1CFA6E04C
:1042F000B0E0EDE7F1E20C94402B0E9434178C0102
:1043000080913605909137058017910779F01982D1
:104310001A820E943417BC0149815A8180E090E0E2
:104320000E94B62010933705009336052696E4E0E8
:104330000C945C2BA3E1B0E0E0EAF1E20C94372BA3
:104340001A821982FE01339688E0DF011D928A9558
:10435000E9F78CE4A82E81E0B82E8E010F5F1F4F85
:104360004801EE24E394F12C27E5C22E21E0D22E61
:10437000F50181915F018F3F09F441C0F894E82F66
:10438000E295EF70F0E021A18F70A70102C0440F09
:10439000551F8A95E2F7CA01922F982B91A392A1FB
:1043A0008095892382A3789400C0E1E5F1E031E0B3
:1043B000712C21912F3F09F465C0A22FA295AF70F7
:1043C000A05EB0E08C9190E02F7002C0959587952B
:1043D0002A95E2F78170811155C0832F782A330F17
:1043E000CE16DF0631F7F501319780818F3F11F04E
:1043F0000E94AC0950EA5A95F1F7D8017C920F5F00
:104400001F4FB1E5AB16B1E0BB0609F0B1CF4AE0F2
:1044100050E0B4018AEC92E00E94DB2B0091D502BF
:10442000892B91F18AE0F401AAECB2E001900D929F
:104430008A95E1F781E08093B3010E94341790934D
:10444000B2018093B1018091B1019091B2010E94BB
:10445000BF170597E8F010E008511B4F45E050E00A
:104460006AEC72E0C8010E94DB2B892B41F085E0E9
:10447000EAECF2E0D80101900D928A95E1F71092F2
:10448000B30106C080E0AACF8091B3018111DBCFD8
:104490000E941C0DE091D502882309F47BC01C8684
:1044A0001B869E01235F3F4F83E0D9011D928A95B1
:1044B000E9F70E2F10E008511B4F8091BC018A30A4
:1044C000A0F57E01BBE0EB0EF11C48E953E1B7011A
:1044D000C8010E94E20D6701882309F449C044EC39
:1044E00053E1B701C8010E94E20D882309F440C0DE
:1044F0004DE154E1B701C8010E94E20D8823C1F1EA
:104500001092BC018091D40290E045E050E0B601E9
:1045100088519B4F0E94DB2B21E02093B001892B17
:10452000D1F46396EDE00C94532B8091AE01909101
:10453000AF010E94BF17843F914018F68091B001EF
:10454000882379F3FE013B9685E0DF011D928A9571
:10455000E9F71092B001A091D402B0E0A851BB4F8E
:1045600085E0FE013B9601900D928A95E1F7D9CF47
:104570008091BC018F3F39F40E9434179093AF01B2
:104580008093AE01DBCF8F5F8093BC018A3008F44B
:10459000B9CFF2CFF0E0E851FB4F85E0A5E2B5E0FE
:1045A00001900D928A95E1F765E070E085E295E073
:1045B0000E94F30A809324054091070550E0609122
:1045C000060570E0605F7A4FCE010B960E94E82BE3
:1045D0008B8580932B0561E070E0CE010B960E94E5
:1045E000F30A80932A05C0902C05D0902D05E09009
:1045F0002E05F0902F058091AA019091AB01A0911A
:10460000AC01B091AD01C816D906EA06FB0609F463
:1046100088CFC092AA01D092AB01E092AC01F09297
:10462000AD010E941C0D81117CCF0E94720BC61A35
:10463000D70AE80AF90AC0923205D0923305E0920F
:104640003405F09235056DCFCDB7DEB72B970FB699
:10465000F894DEBF0FBECDBF85B7806885BF85B734
:10466000806885BF84B7877F84BF0FB6F894A8950C
:1046700080916000886180936000109260000FBE9E
:1046800080E890E00FB6F894809361009093610009
:104690000FBE8AEA99E09093A1018093A0010E9445
:1046A0003C0C0E94A20C8091E20084608093E200A6
:1046B000789480913005882399F08091E9001091D9
:1046C000EC001795112717958F70182B1092E900A1
:1046D0008091E80083FD0E94780F1F701093E9001D
:1046E00082E084BD93E095BD9AEF97BD80936E0004
:1046F0001092320510923305109234051092350550
:104700000E941C0D809309010E941C0D81110E94C2
:10471000BB298091090191E0892780930605292F03
:10472000281B209312058091090190930705809121
:10473000090190930F0580910901811106C084EF52
:104740008093130185EF8093120180911301E82F6C
:10475000E295EF70F0E041A18F7021E030E0B90107
:1047600002C0660F771F8A95E2F7CB01962F9095CE
:10477000942391A392A1892B82A380911201E82F07
:10478000E295EF70F0E041A18F70D90102C0AA0F4D
:10479000BB1F8A95E2F7CD019A2F9095942391A3A0
:1047A00092A1892B82A3EFE8F1E03197F1F700C0E5
:1047B00000001091070563E171E0E2E1EE2EE1E017
:1047C000FE2E48E055E0FB018E2F861B811708F472
:1047D000C4C1809109018091090190E0811101C05B
:1047E00095E09093D50285E0891B8093D4020CE478
:1047F00011E0F80181918F018F3F11F00E94AC0907
:10480000F1E001351F07A9F701E511E077E5E72E93
:1048100071E0F72ED8018D918D018F3F11F00E942C
:10482000AC09E016F106B1F78AE0E8EEF4E0DF014A
:10483000282F1D922A95E9F7EAECF2E0DF011D929C
:104840008A95E9F780E090E00E94FF2B863E9E4F1C
:1048500011F00E94981282E090E00E94F12B809368
:10486000F20484E090E00E94FF2B90937A058093FD
:10487000790583E090E00E94F12B90E00E946206AF
:1048800080917405909175050E947E0A0E941C0D0E
:1048900081118BC190E080E89093E2048093E10461
:1048A0000E9464286BE070E088E49AE00E94A11600
:1048B000882309F443C08091E20465E070E081FD43
:1048C00077C183E49AE00E94A1168823B9F16DE0D4
:1048D00070E081E39AE00E94A116882379F10E949A
:1048E000720B6F83788789879A87DC01CB01805AA6
:1048F0009541AF4FBF4F8093DD049093DE04A093AA
:10490000DF04B093E004EAEDF2E080E092E0DF0142
:104910009C011D9221503040E1F7F093D902E093C1
:10492000D8028FEF9FEF9093D7028093D60281E059
:104930008093DC048093DB041092DA048091E3041A
:1049400081118DC080E090E00E94FF2B863E9E4F3B
:1049500021F00E9498120E944F1288E090E00E947D
:10496000F92B6B017C0184E290E00E94F12B282F4F
:1049700030E040E050E060E070E080E090E000E295
:104980000E948F2BE22FA32EB42EB52FA62FF72F28
:104990009701860140E050E0BA01EC29A12AB22A31
:1049A000B32BA42BF52B862B972BE0936705A092B6
:1049B0006805B0926905B0936A05A0936B05F09302
:1049C0006C0580936D0590936E05E230C8F50E94EA
:1049D0004F1288E090E00E94F92B6B017C0184E289
:1049E00090E00E94F12B282F30E040E050E060E0A2
:1049F00070E080E090E000E20E948F2B5901B42F1C
:104A0000A52FF62FE72F9701860140E050E0BA016D
:104A1000AC28B12AB22BA32BF42BE52B862B972B9A
:104A2000A0926705B0926805B0936905A0936A05E6
:104A3000F0936B05E0936C0580936D0590936E0584
:104A40000E94520A109265058091670580FF04C09C
:104A500060E086950E944B1781E08093E3040E94FA
:104A60001C0D811102C00E94BE2983E59AE090933B
:104A7000E5048093E4048AE091E090933905809303
:104A800038053DEFE32E34E0F32E42E0642E712C26
:104A900058E1C52ED12C62EFA62E64E0B62E80918F
:104AA0003005853049F480913005853009F483C0A4
:104AB0000E944C0F0E94750D0E949A2103EF14E092
:104AC00028EE822E24E0922ED401F80191918D914E
:104AD000EE16FF0609F4BFC09817C1F30E941C0D23
:104AE0008B87512CD4014D904D01F80181918F019C
:104AF000841551F184258F83312C222423948F81B6
:104B000082218823C9F0FB85FF23B1F039825A82C4
:104B10000E9434179C838B8321E02D8391E0822DAA
:104B20008421811101C090E09E8349815A816B816B
:104B30007C818D810E94B6203394220C36E03312A2
:104B4000DECFF8013197408253944AE05412CACF25
:104B50000E943F0D5524539483C00191802F82956C
:104B60008F70805E90E0DC012C91D7013D917D013A
:104B7000832F82958F70805E90E0DC018C9190E0B5
:104B80003F7002C0959587953A95E2F78170880F3E
:104B900030E00F7002C0359527950A95E2F7217035
:104BA000822BDA018D93AD010FCE93E080E274CEBB
:104BB0008EE39AE088CE80913005843021F10E9406
:104BC000CE161092E60440E40FB6F894A895C09271
:104BD00060000FBE4093600083B7817F846083BF15
:104BE00083B7816083BF7894889583B78E7F83BFB6
:104BF0000FB6F894A895809160008861809360005A
:104C0000109260000FBE8091E704882309F44BCF17
:104C10000E949A21E8EEF4E08191811104C0AE1661
:104C2000BF06D1F740CF80E189BD82E189BD09B4DB
:104C300000FEFDCF8091D8008F7D8093D8008091B9
:104C4000E00082608093E0008091E00081FDFCCF75
:104C50000E944C0F28CF981341CF0E947721512CEE
:104C60000E941C0D809165058823D9F1809164050F
:104C7000E0916705E695E81BE0930005823009F0B6
:104C800043C0E695F0E0E55AF54FE4910E2F10E0B1
:104C900096E1892E95E1992E80910105882361F096
:104CA000109201050E9440179093FF048093FE0428
:104CB00010920305109202050E9440172091FE04F5
:104CC0003091FF04821B930B8F3F9F4750F4200FBE
:104CD000311F3093FF042093FE048EEF94E0F40123
:104CE00009958091FD04882361F01092FD04809164
:104CF0006505811106C08091670560E086950E9478
:104D00004B17812C412C7DC000ED17E085EC882EDF
:104D100089E0982EC1CF082D10E0F801ED5EFE4F1E
:104D20004081E42FE295EF70E05EF0E02081F80131
:104D3000EE5EFE4F3081E32FE295EF70E05EF0E033
:104D4000808190E03F7002C0959587953A95E2F793
:104D50008170880F30E04F7002C0359527954A95D5
:104D6000E2F72170822BD801A85FBA4FEC919E2FF9
:104D70009370891709F444C0EE0FEE0FE82BEC9303
:104D800090900605980CEF70F0E0E95AFE4F0C5F2A
:104D90001A4F8081D8019C91890F8C9320E082303A
:104DA00084F0E92DF0E0E05FFA4F80818F5F80832F
:104DB0000E941C0D882321F060E0892D0E94050FC0
:104DC00021E0F80180818F3F84F4E92DF0E0E05F7D
:104DD000FA4F8081815080830E941C0D882321F02E
:104DE00061E0892D0E94050F21E0D8018C91082EE9
:104DF000000C990BB3010E94752BF8018083422AA5
:104E0000839480910705881608F485CF442039F0F3
:104E10000E94720D0E94CE170E94E01604C00E94EC
:104E2000CE175110F9CF0E94750D90910A05891780
:104E300009F435CE80930A050E94720B30CE789427
:104E40001F921FB61F9211248F939F93AF93BF930E
:104E50008091200590912105A0912205B091230514
:104E60000196A11DB11D8093200590932105A0936B
:104E70002205B0932305BF91AF919F918F911F9011
:104E80001FBE1F9018951F920F920FB60F921124FC
:104E90002F933F934F935F936F937F938F939F9342
:104EA000AF93BF93EF93FF938091E10082FF09C01E
:104EB0008091E20082FF05C08091E1008B7F8093AA
:104EC000E1008091DA0080FF24C08091D80080FF4B
:104ED00020C08091DA008E7F8093DA008091D90023
:104EE00080FF9BC080E189BD82E189BD09B400FEDD
:104EF000FDCF81E0809330058091C001811109C010
:104F00000E943C0C0E94A20C8091E200846080937D
:104F1000E2008091E10080FF17C08091E20080FFF5
:104F200013C08091E2008E7F8093E2008091E200C6
:104F300080618093E2008091D80080628093D800E5
:104F400019BC85E0809330058091E10084FF29C081
:104F50008091E20084FF25C080E189BD82E189BDA6
:104F600009B400FEFDCF8091D8008F7D8093D800DA
:104F70008091E1008F7E8093E1008091E2008F7E3E
:104F80008093E2008091E20081608093E200809152
:104F9000BF01882309F447C084E0809330058091E5
:104FA00030058091E10083FF27C08091E20083FFFC
:104FB00023C08091E100877F8093E10082E08093AD
:104FC00030051092BF018091E1008E7F8093E10057
:104FD0008091E2008E7F8093E2008091E200806108
:104FE0008093E20042E060E080E00E946B0C8091E0
:104FF000F00088608093F000FF91EF91BF91AF9136
:105000009F918F917F916F915F914F913F912F91E0
:105010000F900FBE0F901F90189519BC109230057D
:105020001092C00176CF8091E30087FF02C083E039
:10503000B4CF81E0B2CF1F920F920FB60F9211241E
:10504000FF920F931F932F933F934F935F936F9311
:105050007F938F939F93AF93BF93CF93DF93EF9300
:10506000FF9309EE10E0F8018081C091EC00C79534
:10507000CC27C7958F70FC2EF82A1082C0EFD0E0A5
:105080008881877F888378940E94780FF801108246
:10509000888188608883CF2DCF70C083FF91EF9186
:1050A000DF91CF91BF91AF919F918F917F916F9140
:1050B0005F914F913F912F911F910F91FF900F9012
:1050C0000FBE0F901F9018951092B9008CE080933E
:1050D000B8000895A0E0B0E0E0E7F8E20C94392BC6
:1050E000B82EEB010E9434176C01EE24E394F12CEE
:1050F000C431D10560F025E0E22EF12CCF3FDC0772
:1051000031F0CE0164E170E00E941E2B7B0184EA45
:10511000A82E94E8992E1092BC00A092BC000E9488
:105120003417182F092F8091BC0087FF0CC0809185
:10513000B900887F8830F9F08091B900887F80318C
:10514000D1F00FEF08C0812F902F0E94BF17E816F3
:10515000F90648F70EEF1FEFCF3FDC07E1F2C6017B
:105160000E94BF17C817D907B0F6C801CDB7DEB780
:10517000EBE00C94552BB092BB009092BC000E94C7
:105180003417182F092F8091BC0087FF0AC0209187
:10519000B900287F283111F0203499F600E010E0A2
:1051A000E4CF812F902F0E94BF17E816F90658F719
:1051B000D1CF0F931F93CF93DF93EB018093BB006D
:1051C00084E88093BC000E943417182F092F809127
:1051D000BC0087FF11C02091B900287F81E090E0DA
:1051E000283211F480E090E0919581959109DF914A
:1051F000CF911F910F910895CF3FDC0741F3812F8D
:10520000902F0E94BF17C817D90708F78EEF9FEF9E
:10521000EECFA0E0B0E0EFE0F9E20C943C2B6B01A4
:105220008A01F22EE32E622F732F0E946A28AC01AE
:10523000E6010C0D1D1DC017D10711F057FF09C065
:1052400084E98093BC00CA01CDB7DEB7E8E00C94D6
:10525000582B6F2D7E2D89910E94D928AC01EBCF60
:10526000A0E0B0E0E6E3F9E20C943C2BC62F6A0123
:105270007901B8010E946A289C0197FD0DC0B80110
:105280008C2F0E94D9289C01E601EC0CFD1CCE1548
:10529000DF0511F037FF09C084E98093BC00C90124
:1052A000CDB7DEB7E8E00C94582BB80189910E9485
:1052B000D9289C01ECCF84E98093BC0008958EE14D
:1052C0004A9B03C081508111FBCF4A9BFECF0895BA
:1052D0005A9880E28A95F1F75A9A0895FC013BE0CA
:1052E0003A95F1F798E020E080E031E040E14A951E
:1052F000F1F7880F4A9B02C08160232742E04A955C
:10530000F1F7000040E14A95F1F791509111EECF8D
:1053100090E19A95F1F799B132E03A95F1F70000F2
:1053200040E14A95F1F792FB992790F99227208165
:10533000920F90830895A1E0B0E0E1EAF9E20C94C5
:105340003E2B19828C017C01E60EF11C0E151F0507
:1053500041F481E09981911180E02196E6E00C947E
:105360005A2B0E945F29CE0101960E946E29F801F6
:1053700081938F01EBCF529A5A9A089552985A9A74
:10538000EA9AE9E6F0E080818F7C8083089561509D
:10539000770B91E001C0990F6A95EAF7692F90E0C9
:1053A00021E0611108C0992399F05A9A80E28A9508
:1053B000F1F75A980895362F3823332339F05A9A43
:1053C000922730E23A95F1F76695EBCF5A98F9CFEC
:1053D0005A98ECCFFF920F931F93CF93DF93EC017A
:1053E0008C01060F111DC017D10729F4CDB7DEB708
:1053F000E5E00C945B2BF9900E94682968E08F2D02
:105400000E94C729F0CF1F920F920FB60F9211245E
:105410000F931F932F933F934F935F936F937F93BC
:105420008F939F93AF93BF93EF93FF93CF93DF93AC
:105430000F92CDB7DEB719820E945F29CE01019687
:105440000E946E29082F069506950695982F92952D
:105450009570202F2570920F292F23709695969581
:10546000920F982797708981892B81115CC0063033
:1054700008F059C080E18A95F1F75A9A529A82E071
:105480008A95F1F700C05A9888E0089F800111249E
:10549000D801AC5EBE4F1696ED91FC9117973097F0
:1054A000A9F0609167017091680114962D913C916B
:1054B0001597260F371F11968D919C911297680FA3
:1054C000791F13964C9113978C910995F801EC5E16
:1054D000FE4F6381662351F020916701309168018E
:1054E00084819581820F931F0E94EA290E94682976
:1054F00080E18A95F1F75A9852985A9A80E18A95F4
:10550000F1F7F801EC5EFE4F6081662351F02091C7
:1055100067013091680181819281820F931F0E94FF
:105520009B290E945F290F90DF91CF91FF91EF910E
:10553000BF91AF919F918F917F916F915F914F91AB
:105540003F912F911F910F910F900FBE0F901F90C1
:1055500018950F931F93CF93DF938C0106970CF050
:1055600065C0F894529A5A9885E08A95F1F7000040
:10557000C02FC695C570802F8570C80F8C2F837083
:10558000C695C69593E0000F111F9A95E1F7C80FD5
:10559000C8018C2BEC010E94682900C068E08C2FA8
:1055A0000E94C72990E19A95F1F752985A9A4A9B1E
:1055B00035C087E090E04A9933C0F801EC5EFE4FB9
:1055C0006381662361F020916701309168018481D5
:1055D0009581820F931F0E949B29882321F10E94AD
:1055E0005F2980E28A95F1F75A98529A90E19A954C
:1055F000F1F7F801EC5EFE4F6081662351F02091D7
:1056000067013091680181819281820F931F0E940E
:10561000EA290E946829789481E009C000C0C7CFB8
:105620000197009749F4529A5A9A789480E0DF9152
:10563000CF911F910F91089500C0BDCFAA1BBB1B36
:1056400051E107C0AA1FBB1FA617B70710F0A61B82
:10565000B70B881F991F5A95A9F780959095BC01A3
:10566000CD0108952F923F924F925F926F927F9259
:105670008F929F92AF92BF92CF92DF92EF92FF9262
:105680000F931F93CF93DF93CDB7DEB7CA1BDB0B0E
:105690000FB6F894DEBF0FBECDBF09942A883988B3
:1056A00048885F846E847D848C849B84AA84B984BA
:1056B000C884DF80EE80FD800C811B81AA81B981C6
:1056C000CE0FD11D0FB6F894DEBF0FBECDBFED01DA
:1056D0000895991B79E004C0991F961708F0961B4E
:1056E000881F7A95C9F78095089597FB072E16F4C1
:1056F000009407D077FD09D00E941E2B07FC05D02F
:105700003EF4909581959F4F0895709561957F4FD8
:105710000895EE0FFF1F0590F491E02D0994002EDF
:10572000083090F0982F872F762F652F542F432F16
:10573000322F22270850F4CF220F331F441F551F4A
:10574000661F771F881F991F0A95B2F7002D0895CD
:1057500097FD1094002E083098F00850232F342F16
:10576000452F562F672F782F892F912DF4CF159421
:105770009795879577956795579547953795279589
:105780000A95AAF71124002D0895FB01DC0102C03F
:1057900005900D9241505040D8F70895FC014150BA
:1057A000504030F001900616D1F73197CF0108959F
:1057B000882799270895FB01DC0104C08D91019091
:1057C000801921F441505040C8F7881B990B089567
:1057D000FB01DC0102C001900D9241505040D8F70E
:1057E0000895F999FECF92BD81BDF89A992780B5A9
:1057F0000895A6E1B0E044E050E00C943B2CA8E111
:10580000B0E042E050E00C943B2CDC01A40FB51F4B
:105810004150504048F0CB01840F951F2E910E94BB
:10582000162C41505040D0F70895262FF999FECFFD
:1058300092BD81BDF89A019700B4021639F01FBAE3
:1058400020BD0FB6F894FA9AF99A0FBE0895039600
:10585000272F0E94162C0E94152C252F0E94162CF3
:10586000242F0C94162C0196272F0E94162C0C9492
:10587000152CDC01CB01FC01F999FECF06C0F2BD6D
:10588000E1BDF89A319600B40D9241505040B8F7FE
:105890000895F894FFCF55107B1081107B10811074
:1058A000D410F6108110F41101121B1A1F1A111ACC
:1058B000171A231A271A2B1A9A1A051BA21A6C1ADE
:1058C000701AA61A741AAA1AB61A801AFE1A841A1C
:1058D000BA1A881ABE1AE61A8C1AC21AED1A921A45
:1058E000C81AD01A781AAE1A7C1AB21A961ACC1A9A
:1058F000DC1AF61AFC1A661A9E1A0C1B3C1B611B5A
:10590000681B6D1B721B771B7C1B811B861B8B1BF3
:10591000901B951BEA19EA19981BEA19EA19EA196A
:10592000EA19EA19EA193D1C3D1C861C861C281D33
:10593000301D9C1E301D4C1DDC1DEF1DEF1DA61ED5
:0C594000D61EAE1EB11EBA1EB61EBF1E43
:10594C00010021007F22000301018F0BC40D920B7B
:10595C00DB0DF4F500000001000000000000000564
:10596C000100000000000001060000000000000122
:10597C0007000000040800000000000000081018D8
:10598C001810080000010202020202026697C634D7
:10599C0035F6F73133323600FF0100010000FFFF0E
:1059AC000000010001FF002405E200E900EA00B557
:1059BC0000B600B700CD008301CC008A019201949F
:1059CC00012102230224022502260227022A02B305
:1059DC0000B4006F0070009F01CB019F02A0020079
:00000001FF
